:1000000000000420BD020000E5020000E70200003D
:10001000E9020000EB020000ED0200000000000019
:10002000000000000000000000000000EF020000DF
:10003000F102000000000000F3020000F5020000E1
:10004000F7020000F702000061200000F702000044
:10005000F7020000F7020000611B0000F702000039
:10006000F7020000F7020000F7020000F7020000AC
:10007000F7020000F7020000F7020000F70200009C
:10008000F7020000E50F0000F7020000F702000091
:10009000F7020000F7020000F7020000F70200007C
:1000A000F7020000F7020000F7020000F70200006C
:1000B000F7020000F702000000000000000000004E
:1000C000F7020000F7020000F7020000F70200004C
:1000D000F7020000F7020000F7020000F70200003C
:1000E000F7020000F7020000F70200000000000025
:1000F00000000000F702000000000000C120000026
:1001000000000000000000000000000000000000EF
:1001100000000000000000000000000000000000DF
:1001200000000000000000000000000000000000CF
:1001300000000000000000000000000000000000BF
:1001400000000000000000000000000000000000AF
:10015000000000000000000000000000000000009F
:10016000000000000000000000000000000000008F
:10017000000000000000000000000000000000007F
:10018000000000000000000000000000000000006F
:10019000000000000000000000000000000000005F
:1001A000000000000000000000000000000000004F
:1001B000000000000000000000000000000000003F
:1001C000000000000000000000000000000000002F
:1001D000000000000000000000000000000000001F
:1001E000000000000000000000000000000000000F
:1001F00000000000000000000000000000000000FF
:1002000010B5054C237833B9044B13B10448AFF350
:1002100000800123237010BDB0000020000000000A
:10022000B438000008B5034B1BB103490348AFF3D2
:10023000008008BD00000000B4000020B4380000B9
:10024000A3F5803A704700BF174B002B08BF134B34
:100250009D46FFF7F5FF00218B460F461348144AD1
:10026000121A03F065F90E4B002B00D098470D4B86
:10027000002B00D098470020002104000D000D48FD
:10028000002802D00C48AFF3008003F01FF92000D3
:10029000290002F05BFF03F005F900BF0000080031
:1002A000000000000000000000000420B00000205A
:1002B000D807002000000000000000000649074A9F
:1002C000074B9B1A03DD043BC858D050FBDC02F0FF
:1002D000BFFFFFF7B9FF00002C390000000000202D
:1002E000B0000020FEE7FEE7FEE7FEE7FEE7FEE7E0
:1002F000FEE7FEE7FEE7FEE7F0B595B000241D46F9
:100300000E460846174601F00DFB304623460822EC
:10031000099505A91A9D08970D950A948DF82C400A
:100320000C9401F063FB9DF814308DF81140DDE969
:10033000061003F00302012ACDE9020128D0022AA7
:1003400004D0304601F0F2FA15B0F0BDBDF81650F9
:10035000C3F3C2038DF81030C5F389150827082DA3
:100360002C4628BF08243B4622460EA9304601F001
:100370003DFB2D1B214608AB02AA0EA8274400F026
:1003800011FD002DEBD1304601F0D0FA15B0F0BDD3
:10039000BDF81470059DC7F38312C3F3C2040EA900
:1003A0003046920008238DF81040C7F3831701F000
:1003B0001DFBC5F3952508AB3A4628460EA90093C8
:1003C00002AB00F077FC304601F0B0FA15B0F0BD9A
:1003D000014B01221A70704710010020704700BFC6
:1003E00000B583B0044B0093044A4023FFF784FF19
:1003F00003B05DF804FB00BF01040000D000002042
:1004000038B50E480E4D03780E4CEB5C0025257078
:10041000D2B253B1043002F011FE58B90A4B1B7826
:1004200013B12378002BFCD038BD0C3002F01EFB3A
:100430000028F3D000F07CFDF0E700BF00000020B2
:10044000D407002010010020CC0000202DE97043CB
:1004500019481A4A0378D35C88B02BB3043002F0F1
:1004600035FD174D0FCD6C460FC495E80F004FF0CA
:10047000EB7684E80F004FF006084FF0FF394FF09D
:10048000FF344FF0FF350C48069600226946CDE94F
:100490000089CDE9024501F01FFB48B9094B002254
:1004A0001A7008B0BDE870830C3002F059FAD8E732
:1004B00000F03EFDF2E700BF00000020D40700205E
:1004C0006C350000CC000020F0B5154D0FCD89B083
:1004D0006C460FC495E80F004FF0EB7C84E80F00EA
:1004E00006264FF0FF374FF0FF344FF0FF350D4A2F
:1004F0000D48CDF818C06946CDE90067CDE9024541
:1005000001F0EAFA20B9094B01221A7009B0F0BDD6
:1005100000F00EFD054B01221A7009B0F0BD00BFBE
:100520006C350000D103000000000020CC0000204A
:1005300008B5FFF7C9FF0448042100F039FB034B5D
:1005400001225A7108BD00BFB83800001400002015
:10055000064B074810B500221A7001F097F90446BF
:1005600010B9044801F076FA204610BDE4010020DD
:1005700010390000C435000099B10E4B0E495B1ACA
:10058000DB0815D030B400220C4D02E0013293425A
:100590000BD035F822408442F8D151F8320030BCFB
:1005A0007047054951F830007047002030BC704753
:1005B0001846704710390000C8380000B00000200D
:1005C000094B013903EBC00003290BD8DFE801F028
:1005D00004020806042070470220704740797047E3
:1005E0000079704700207047C8380000704700BF8E
:1005F0002DE9F043894CD4E901239A4285B060D0BB
:100600000023C4F81834BFF34F8FA568EAB2D31C97
:1006100004EB830114F82330580718D566680B786B
:1006200003F00303012B42D0022B03D14B88023588
:1006300005EB9315EAB2D4F81804D31C04EB83013C
:1006400028B9AE4239D914F823305B07E7D404EB5C
:1006500082026B1CD2680192DBB204EB830302F0CE
:100660000302DB680293022A05F102062DD0012A5B
:1006700000F08880D4F810543DB12B6828469B6860
:100680009847EB681D68002DF7D16548654B6649B2
:10069000C01AC008000440F0020000F0C7F9D4E915
:1006A0000130C01A18BF012005B0BDE8F0830B88E7
:1006B0000235C3F383131D44BCE7A66005B0BDE853
:1006C000F083002005B0BDE8F083BDF80630574840
:1006D000C3F389184546502D28BF502565F38F1365
:1006E00005F10801ADF8063001F0D2F80746002800
:1006F000C0D001F017F9002301A90822384601F003
:1007000041F9F343DBB20133B5EB830F4FEA8309C1
:10071000F1B272D9A5EB0905033104EB810108237D
:100720004A463846EDB201F02DF941492A4609F111
:100730000803384601F026F908F1030806EB98068D
:10074000D4F81834002B65D1D4F8105465B1EB6897
:100750005A7928463946002A58D02B681B68984792
:10076000EB681D68002DF2D1384601F0DFF800205B
:1007700000F026FCD4F8183403B9A660002000F07D
:1007800027FC8CE7BDF804302848C3F38312062AFF
:1007900028BF0622911C62F389138900ADF804304A
:1007A00001F076F8074600283FF464AF01F0BAF88C
:1007B0000023082201A9384601F0E4F8BDF804300E
:1007C00013F4707FBCD06FF00108A8EB0508082572
:1007D000F1B203312B46042204EB8101384601F0CB
:1007E000D1F8BDF80420013608EB0603C2F38312EA
:1007F0009A4205F10405EBD8A2E703312A4604EB3F
:1008000081010823384601F0BDF895E71D68002DE9
:100810009DD1A9E7384601F089F840E7E4010020BE
:10082000F0380000C8380000AC3500001039000076
:10083000F00100202DE9F04F02F1030A89B0DFF842
:10084000E8B103464FEA9A040020CDE90231904610
:10085000019400F0B5FBDBE9012303F58073A51CCF
:100860009B1A9D4200927AD90BF21C440BF58369C6
:100870000BF2144719E0BDF81630C3F389130333A4
:10088000360C0AEB930A384600F0F0FB314600289C
:1008900039D02046CBF808A000F0BCFBDBE90123EF
:1008A00003F580739B1A9D4259D90121204600F01F
:1008B000B1FB484600F0CAFB384600F0C7FBDBF846
:1008C0000830DAB2D11C0BEB81061BF8210000F0D6
:1008D0000401400726D40BEB8202591CD268059212
:1008E000C9B20BEB810102F00302012ACE6803F1C9
:1008F000020A2DD0022ABED0384600F0B7FB0026EF
:1009000031460028C5D12046C6E773880CEB931307
:10091000DAB2D11C0BEB81061BF8211001F00401A7
:100920000029D8D0307800F0030001280AD002282E
:1009300003F1020C02F10300E7D00BEB8006002963
:10094000F0D1C8E732880233C2F383121344DFE7E1
:10095000BDF81430C3F38313360C9A4493E7D3B233
:100960001544019A0333062162F39F5100204BF88E
:100970002310CBF8045000F02BFB009B981CC0B256
:10098000C0F58073B8EB830F00F103004FEA8304D6
:100990000BEB80003ED9039D2246294602F0BAFDAA
:1009A0002B4623441E481946A8EB040202F0B2FD70
:1009B00000211C4800F020FB80F310000099029CED
:1009C0004B1CDBB2220C0BEB8303CEB2033642EAA4
:1009D0000040D860E2005BF8263002F0380242F0B6
:1009E000020242EA885803F47C1248EA02024BF8F9
:1009F00026209BF8003023B9FFF7F8FD09B0BDE8C9
:100A0000F08FFFF7F5FD0028F6D0FFF7F1FD002885
:100A1000F7D1F1E70399424602F07CFDC8E700BF39
:100A2000F001002000060020E40100202DE9F04F35
:100A30005D4C87B0064600200F4600F0C1FAD4E9AD
:100A4000015303F580735B1B012B7DD804F21C4816
:100A500004F5836A04F214491AE0BDF80E30C3F3BA
:100A600089130333090C0BEB930B4846019100F0FB
:100A7000FDFA0199002839D04046C4F808B000F0CA
:100A8000C9FAD4E9013202F58072D21A012A5CD87F
:100A90000121404600F0BEFA504600F0D7FA484621
:100AA00000F0D4FAA368DAB2D11C04EB810014F888
:100AB000211001F0040C490728D404EB8202591CD0
:100AC000D2680392C9B204EB810102F00302012A49
:100AD000C96803F1020B30D0022ABED0002148467B
:100AE000019100F0C3FA01990028C5D14046C6E73C
:100AF00043880EEB9313DAB2D11C04EB810014F897
:100B0000211001F0040CBCF1000FD6D0017801F0E7
:100B1000030101290BD0022903F1020E02F10301A6
:100B2000E6D004EB8100BCF1000FEFD1C5E70288ED
:100B30000233C2F383121344DDE7BDF80C30C3F374
:100B40008313090C9B4490E72B46DAB2033202333D
:100B50000521002044F82210636000F039FA0021DA
:100B6000124800F049FA80F31000F1006B1C01F00C
:100B70003801DBB2EDB204EB830341F00101000464
:100B8000033540EA164641EA8727DE6044F82570BF
:100B900023781BB1FFF72CFD0028FBD1FFF726FDC2
:100BA00007B0BDE8F08F00BFE40100200006002080
:100BB00030B4154DD5F810140446002071B10B4621
:100BC00001E01B6853B1DB681A798242F9D1013028
:100BD0000A28F3D14FF0FF3030BC7047E36818713A
:100BE000D5F810344BB1DA68E36812681A60D5F8AA
:100BF0001034DB681C6030BC7047C5F81044E268F4
:100C0000136030BC704700BFE401002038B5084BCA
:100C1000D3F8104401251D704CB1E3685D71236861
:100C200020465B689847E3681C68002CF5D138BD06
:100C3000E401002030B5C38885B004460D461BBBD7
:100C4000217A05291ED0627A82B9134AA08852F807
:100C5000212003920021FFF78FFC039A0F490346DE
:100C6000284605B0BDE8304000F074BAA088FFF710
:100C7000A7FC0B4B0B4953F82020284600F06AFADA
:100C8000217AE2E705B030BD074A00920749084AD9
:100C9000284600F05FFAD3E79C360000FC350000E0
:100CA00078360000F8350000F0350000D835000037
:100CB000D03500002DE9F04385B04FF0000C0C9CBE
:100CC000814694F80C8084F80CC00E4617461846EE
:100CD00021461D46FFF7AEFF062F09D8DFE807F0D3
:100CE000042E343B444F1F004946204600F032FAA0
:100CF0002B7A052B05D06B7A5BB92749204600F08B
:100D000029FA204600F01AFA84F80C8005B0BDE8F4
:100D1000F083224A2249204600F01CFAEDE7D6E98A
:100D20000413F2680393B3680291CDE90032494697
:100D3000D6E90023204600F00DFAD9E7326849468B
:100D4000204600F007FAD3E7D6E9002349462046BB
:100D500000F000FACCE7B3680093D6E900234946D7
:100D6000204600F0F7F9C3E7D6E90232019200937A
:100D7000D6E900234946204600F0ECF9B8E7D6E969
:100D80000321B3680291CDE900324946D6E9002338
:100D9000204600F0DFF9ABE708360000F035000030
:100DA000F8350000082900D970472DE9F04F9B461F
:100DB00083B000241B7B8BF80C400D460646594639
:100DC000104690460193DFF8D0902C4FFFF732FF8A
:100DD00005E0325D013400F0BDF9082C09D0A542D0
:100DE00039465846F5D84946013400F0B3F9082C85
:100DF000F5D12349DFF8A490224C234F584600F048
:100E0000A9F94FF0000A0DE0D15D11F0970F08BF6E
:100E10002E22214658460AF1010A00F09BF9BAF148
:100E2000080F10D0554505D916F80A207E2AEBD9AF
:100E30002E22EEE7494658460AF1010A00F08AF9E7
:100E4000BAF1080FEED198F80830052B02D098F8C7
:100E5000093063B90D49584600F07CF9584600F056
:100E60006DF9019B8BF80C3003B0BDE8F08F084A98
:100E70000849584600F06EF9ECE700BF0C36000058
:100E8000183600001C360000AF370000083600009E
:100E9000F0350000F835000014360000043600007C
:100EA0000A4B185C1F288ABF09494FF0A04100F087
:100EB0001F00D1F804350122824022EA03001340CA
:100EC000C1F80805C1F80C35704700BFB036000006
:100ED00000030050C20730B40ED483070AD54FF088
:100EE000A0430C22C3F82C27C3F83027C3F860278F
:100EF000C3F8642730BC70474FF0A0430322C3F807
:100F000034274FF40055C3F838274FF48044C3F812
:100F10003C274FF40041C3F840274FF48032C3F818
:100F20000855C3F80845C3F80815C3F80825D4E7E1
:100F300000B585B00346002101AA44F20100CDE9C5
:100F40000111039300F004F805B05DF804FB00BF45
:100F500010B572B6FFF75AFEFFF74AFB0028FBD127
:100F6000104B114C1149E41AE408240444F0010028
:100F7000FFF75CFD0E4B1B68DB0700D500BE0D497B
:100F800044F00200FFF752FDBFF34F8F0A490B4BAD
:100F9000CA6802F4E0621343CB60BFF34F8F00BF17
:100FA000FDE700BFC8380000F0380000C036000080
:100FB000F0ED00E0CC36000000ED00E00400FA05A2
:100FC00072B6024A13680133136070479C06002012
:100FD000034A1368013B136003B962B6704700BF50
:100FE0009C060020024A034B10681B68184700BF8C
:100FF000A0060020A806002010B4034653E8000F06
:101000000A4643E8002494F0000FF7D15DF8044B42
:10101000704700BF10B4034653E8002F02EB0100F5
:1010200043E8000494F0000FF6D15DF8044B7047DC
:1010300010B4034653E8002FA2EB010043E800047C
:1010400094F0000FF6D15DF8044B704710B40346DE
:10105000012253E8001F41EA020043E8000494F033
:10106000000FF6D15DF8044B704700BF10B4034683
:10107000002253E8000F00EA020143E8001494F054
:10108000000FF6D15DF8044B704700BFB8B130B423
:10109000D0E90112521A0468D2B2531E2160DBB2A9
:1010A00042B101680A685C1E551C0D601370E3B202
:1010B000FF2BF6D103680020187130BC70470E205A
:1010C000704700BF38B504460020FFF779FFD4E928
:1010D00000311A688A4215D9511E19602168A36827
:1010E0000868258A12F8012CE4681B1A0879DBB21B
:1010F000984205FB024400D20B710020FFF768FF05
:10110000204638BD00240020FFF762FF204638BD8E
:1011100038B5054600200C46FFF752FF2A681368D1
:10112000591C1160E9682A8A641AB4FBF2F41C7035
:10113000BDE838400020FFF74BBF00BF826842B1D6
:1011400010B5044643690168006998470023A3600D
:1011500010BD70470EB400B582B0039921B104AB45
:1011600001AA019300F0ACF802B05DF804EB03B003
:10117000704700BF2DE9F04F164683B0B142DDE95C
:101180000C920F4605469A46C0F095800B464FF0EC
:101190000108B3FBF6F39E4208F10108F9D9D045E6
:1011A00038BFD04612F00103019302D1B9F1000F0C
:1011B0005ED1AA68012403E00AF1FF3A06FB04F4B9
:1011C000BAF1010FF8D8B7FBF4F39E42F6D9DFF875
:1011D000ECA007E0B442B4FBF6F31AD3AA681C46AD
:1011E000B7FBF3F31AF803B0BBF10A0F04FB137754
:1011F00028D02B68511CA96003F802B0D5E9013250
:101200009A42E7D32846FFF799FFB4FBF6F3B442BE
:10121000E4D2019B9BB1B9F1000F10D02024C84546
:1012200009F1FF390BD2AB682A68591CA960D45464
:10123000D5E901329A4214D2B9F1000FEFD103B0CF
:10124000BDE8F08F511C2B68A9604FF00D01995437
:10125000D5E901329A42CCD32846FFF76FFFAA683E
:10126000C7E72846FFF76AFFB9F1000FD7D1E6E7D5
:1012700093071AD42024AA68C84502F1010199D223
:101280002B68A9609C54D5E901329A4209F1FF39D3
:1012900003D2B9F1000FEFD18CE72846FFF74EFFDC
:1012A000AA68B9F1000FE7D184E7BAF1000F0CBFCB
:1012B00030242024DFE74FF0010870E7E836000013
:1012C000002900F054822DE9F04FDFF8B8950C7832
:1012D00085B0064690460D464FF00D0A10E00A2CE8
:1012E000B36800F0AD803268591CB160D454D6E9BF
:1012F00001329A4280F0A0802C78002C00F0878088
:101300000135002C00F08380252CE8D129460027E8
:101310000D4611F8012B2D2A00F08880302A00F0AC
:1013200088802B2A7AD02A2A00F09980A2F13003F3
:10133000092B4FF000040BD804EB840402EB4404A7
:1013400015F8012FA2F13003092BA4F13004F3D9D1
:101350002E2A00F09080002301E015F8012F02F002
:10136000FB016829F9D0252A00F07781583AD1B2DB
:10137000202947D8202A45D8DFE812F0350144005B
:10138000440044004400440044004400440044003D
:10139000440043011301440044004400440013018D
:1013A000440044004400440044004400D20044008F
:1013B0004400A20044009400440044003501012090
:1013C0009842024638BF1A460292002C40F05081E3
:1013D000B80740F16E81002B40F04E821C46BBF1F5
:1013E000000FC0F20A827A0700F11A8207F00302A6
:1013F000022A00F0EA81CDE9004759460A22304628
:10140000FFF7B8FE01352C78002C7FF479AF337BE1
:10141000002B40F01C8105B0BDE8F08F0D4611F89F
:10142000012B2D2A47F004077FF478AF47F001071E
:101430006EE747F002076BE73046FFF77FFE5BE79A
:101440003268591CB16002F803A0D6E90123934227
:10145000FFF449AF3046FFF771FEB36843E7D8F8B1
:1014600000301A1DC8F800206A781C682E2A05F181
:1014700001057FF470AF6A78A2F13003092B05F102
:1014800001054FF000033FF66AAF03EB830302EB65
:10149000430315F8012FA2F130010929A3F130030C
:1014A000F3D95CE7D8F80020111DC8F800101168C6
:1014B0003046CDE900470A22FFF75CFE0135A2E77E
:1014C000D8F800301A1DC8F8002017F00107D3F82B
:1014D00000B040F0F080BBF1000F03D0584602F09E
:1014E0002FF80746BC4240F24381002C00F04081B7
:1014F000202205E0BC4200F03B81002C00F0388146
:10150000B1683368481CB0605A54D6E9013098423B
:1015100004F1FF34EED33046FFF710FE2022E9E756
:10152000D8F80020131DC8F80030B3683168176878
:10153000581C3022B060CA54D6E90123934280F08F
:10154000EF803268581C7821B060D154D6E901325E
:101550009A4280F0E0800F2F03D93B461B090F2BE6
:10156000FCD84FF0805406E00F2C4FEA14137FF69E
:1015700049AFB2681C46B7FBF4F319F803B0BBF1EE
:101580000A0F04FB137754D03368511CB16003F881
:1015900002B0D6E901329A42E6D33046FFF7CEFDDB
:1015A000E2E7D8F80020111DC8F80010D2F800B00A
:1015B0008BEAEB72A2EBEB72092A7FF700AFDFF840
:1015C000C8C2012011466329ACFB02E200F1010010
:1015D0004FEAD202F6DC9842024638BF1A4602921F
:1015E000002C45D1F4E6D8F80020111DC8F80010F1
:1015F00011683046CDE900471022FFF7BBFD0135E9
:1016000001E7D8F800301A1DC8F800201C78B3682C
:101610000A2C00F011813268591CB160D454D6E90B
:1016200001329A42FFF4EEAE3046FFF787FD0135F6
:10163000E9E63368511CB16003F802A0D6E9013233
:101640009A42A1D33046FFF779FDB2689CE7304655
:1016500005B0BDE8F04FFFF771BDB3683168581CA5
:10166000B060CA54D6E901329A42DDD20135CAE6E9
:10167000BBF1000F59DB7A0757D4B80702D5002B0E
:101680003FF4ADAEF9073FF5AAAE94B1202202991E
:10169000A142BFF4A4AEB168481CB06030684254A7
:1016A000D6E90101814204F1FF3480F0D480002C9E
:1016B000EDD1002493E69BF80030002B00F0E08091
:1016C000B0685F46CBF101020A2B02EB070B3CD05E
:1016D000411CB16031680B54D6E90130984226D2E2
:1016E00017F8013F002BEFD15C457FF68BAE20272A
:1016F00002E05C453FF486AEB2683368511CB160CD
:101700009F54D6E901329A4204F1FF34F1D33046B6
:10171000FFF714FDEDE73046FFF710FDB2681AE75A
:101720003046FFF70BFDB3680BE7013CA5E73046F9
:101730000292FFF703FD17F8013F002BD4D0029A65
:10174000B0680A2B02EB070BC2D1411CB1603168B3
:1017500001F800A0D6E901108842B9D33046CDE99E
:101760000232FFF7EBFCDDE90232B068B0E7704708
:101770009BF80040002C3FF445AE0A2CB0680ED018
:101780003368421CB2601C54D6E90130984214D22E
:101790001BF8014F002C3FF435AE0A2CF0D1336812
:1017A000421CB26003F800A0D6E901309842E7D3AA
:1017B0003046FFF7C3FCB068E2E73046FFF7BEFCF7
:1017C0001BF8014F002CD8D11CE6002B7FF413AE80
:1017D0008CB130220299A142BFF40DAEB168481C11
:1017E000B06030684254D6E90101814204F1FF340F
:1017F0003BD2002CEED10024FDE5B1684A1CB2605A
:1018000032682D205054D6E901219142CBF1000BD2
:10181000FFF4ECAD30460393FFF790FC039BE5E546
:10182000B1684A1CB26032682B205054D6E90121BD
:101830009142FFF4DBADEDE73268591CB16002F86C
:1018400003A0D6E901239342FFF4E5AE3046FFF74B
:1018500075FCB368DFE630460393FFF76FFC039B2C
:101860002022002C7FF413AF23E730460393FFF7C9
:1018700065FC039B3022BCE7F9073FF5B0AD18E7E4
:101880009B4631E7E8360000CDCCCCCCFFF7FEBB61
:101890002DE9F041058A0331043D4E198046B6FB1F
:1018A000F5F6FFF70FFCA0B3F6B24FF48073013EDC
:1018B0000446C580C0F8008083802BD003460025F5
:1018C00008E06279AE4202F1010262713860C0F84C
:1018D00000801FD040461F46FFF7F4FB013503464A
:1018E0000028EED16779791E17D02246013399423C
:1018F0001268FBD1D2F800805FB12668002501E0B4
:1019000034463668214601354046FFF701FCAF42B8
:10191000F6D800242046BDE8F08120682146FFF774
:10192000F7FBF6E704300121FFF774BB2DE9F04126
:10193000012104460430FFF77BFB10F0FF0301D0C8
:10194000BDE8F0816779791E16D0224601339942AD
:101950001268FBD1D2F80080002FF1D02668002554
:1019600001E034463668214601354046FFF7D0FB9A
:10197000AF42F6D8BDE8F08120682146BDE8F041CD
:10198000FFF7C6BB2DE9F8430546C68840791446E3
:1019900006FB00F2043A04EB030C1F1D624538BF3E
:1019A000D41ABE428846B7FBF6F106FB117002D886
:1019B00001392D68FCD1371AA74228BF27469CB1B0
:1019C0004FF000090430E41B28443A4608EB0901B3
:1019D00001F0A0FDA642B9442D6837464FF0000043
:1019E00028BF2746002CEDD1BDE8F8832DE9F84348
:1019F0000546C6884079144606FB00F2043A04EB1B
:101A0000030C1F1D624538BFD41ABE428846B7FB7F
:101A1000F6F106FB117002D801392D68FCD1371A96
:101A2000A74228BF27469CB14FF00009043029186F
:101A3000E41B3A4608EB090001F06CFDA642B944EC
:101A40002D6837464FF0000028BF2746002CEDD107
:101A5000BDE8F8838268002393608268136182681E
:101A600053618268D36082685360826813607047F4
:101A700030B585B0047845688DF80040D0E9024063
:101A8000064A074B039053F82130019552F8211074
:101A90008DF808406846984705B030BDAC06002078
:101AA000B406002030B585B0047845688DF8004054
:101AB000D0E90240064A074B039053F821300195C4
:101AC00052F821108DF808406846984705B030BD9F
:101AD000AC060020B40600202DE9F047DFF8748042
:101AE00090F800E04B7F08F80E300D46074616468A
:101AF0000FCD88B06C460FC495E80F003D78DFF835
:101B00005890DFF858C018F8055049F82E6084E85E
:101B10000F004CF82E00CDF810E05DB1002E0B4AFE
:101B2000694607F1040008BF324601F0BBF808B06F
:101B3000BDE8F087002E064A694607F10C0008BF91
:101B4000324600F015FE08B0BDE8F087711A0000BB
:101B5000A51A0000D4070020B4060020AC0600201F
:101B60002DE9F047002384B0CDE90233D54A11684E
:101B7000012900F040821E46D34B1A68012A00F06A
:101B80002C82D24B1A68012A00F01982D04B1A68B5
:101B9000012A00F00682CF4B1A68012A00F0F38177
:101BA000CD4B1A68012A00F0E081CC4B1A68012A5B
:101BB00000F0CD81CA4B1A68012A00F0A181C94BFF
:101BC0001A68012A20D0E6B1C74F00240125A300DE
:101BD00003F18043354203F5C0434FEA45050BD07E
:101BE000D3F8100557F82420D3F81015C0F30520BA
:101BF000C1F3014102B190470134082CE7D1002E16
:101C000017DB04B0BDE8F08700221A601B6801935F
:101C10004FF0A042019BD2F82015B44B0291C2F8BC
:101C20002015D3F820250392C3F82025002E40F07C
:101C30008B81AD4CAD4E01254FF0A04794F960006B
:101C4000431C46D0C0F3C20204AB1A4400F00703A1
:101C500012F8082C05FA03F31A42C1B200F03F0053
:101C600037D01F2800F2258102464FF0A04909EB2A
:101C7000820304EB000ED3F800C7D3F8008728F4E2
:101C80004038C3F80087CCF3014C9EF93080D3F87C
:101C900000E754F82880BCF1020F0CBF4FF4403A23
:101CA0004FF4003A05FA02F24EEA0A0EC3F800E7D2
:101CB000C9F82025B8F1000F0BD08909032900F0DD
:101CC000B381BCF1020F00F0BE81BCF1030F00F044
:101CD000A88194F96100411C46D0C0F3C20204AB54
:101CE0001A4400F0070312F8082C05FA03F31A420D
:101CF000C1B200F03F0037D01F2800F2DE8002465C
:101D00004FF0A04909EB820304EB000ED3F800C7A3
:101D1000D3F8008728F44038C3F80087CCF3014C8F
:101D20009EF93080D3F800E754F82880BCF1020F08
:101D30000CBF4FF4403A4FF4003A05FA02F24EEA73
:101D40000A0EC3F800E7C9F82025B8F1000F0BD040
:101D50008909032900F06D81BCF1020F00F06B814D
:101D6000BCF1030F00F0628194F96200421C46D07E
:101D7000C0F3C20204AB1A4400F0070312F8082CA7
:101D800005FA03F31A42C1B200F03F0037D01F2812
:101D900000F2AE8002464FF0A04909EB820304EB4B
:101DA000000ED3F800C7D3F800879EF930E028F47E
:101DB0004038C3F80087CCF3014CD3F800A754F89F
:101DC0002E80BCF1020F0CBF4FF4403E4FF4003E9A
:101DD00005FA02F24EEA0A0EC3F800E7C9F8202518
:101DE000B8F1000F0BD08909032900F01381BCF171
:101DF000020F00F02481BCF1030F00F0088194F978
:101E00006300431C45D0C0F3C20204AB1A4400F087
:101E1000070312F8082C05FA03F31A42C1B200F0C6
:101E20003F0036D01F2867D802464FF0A04909EB83
:101E3000820304EB000ED3F800C7D3F800879EF9A5
:101E400030E028F44038C3F80087CCF3014CD3F8D5
:101E500000A754F82E80BCF1020F0CBF4FF4403E97
:101E60004FF4003E05FA02F24EEA0A0EC3F800E70C
:101E7000C9F82025B8F1000F0BD08909032900F01B
:101E8000CE80BCF1020F00F0E280BCF1030F00F045
:101E9000C380D7F820250292C7F82025D6F8203530
:101EA0000393C6F8203513437FF4C8AE04B0BDE8F1
:101EB000F08701F01F02B146D9E601F01F02B146DA
:101EC00020E700BF0061004004610040086100405D
:101ED0000C61004010610040146100401861004036
:101EE0001C6100407C610040C006002000030050DF
:101EF00001F01F02B14650E701F01F02B14696E71C
:101F0000554AD2F8042312067FF559AE00221A6012
:101F100019680091196E0098012903F1600346F0D9
:101F200080067FF450AE1A601B6801934FF0A04208
:101F3000019BD2F82015494B0291C2F82015D3F825
:101F400020250392C3F8202546F000463CE6424A8D
:101F5000D2F8042351067FF52DAE00221A601B68CB
:101F60000093009B46F0400624E63B4AD2F8042347
:101F700090067FF51AAE00221A601B680093009B42
:101F800046F0200611E6344AD2F80423D4067FF541
:101F900007AE00221A601B680093009B46F01006F3
:101FA000FEE52D4AD2F8042315077FF5F4AD002293
:101FB0001A601B680093009B46F00806EBE5264A72
:101FC000D2F8042357077FF5E1AD00221A601B68A1
:101FD0000093009B46F00406D8E51F4AD2F804237C
:101FE00092077FF5CEAD00221A601B680093009B1C
:101FF00046F00206C5E51849D1F8046316F001065B
:102000003FF4BAAD136013680093009BB4E5022956
:102010007FF4F5AEC047F2E602297FF43AAFC0473D
:1020200037E702297FF455AEC04752E602297FF414
:102030009BAEC04798E601297FF496AEF9E70129E7
:102040007FF4DDAEE6E701297FF443AEECE701293A
:102050007FF41FAFE3E700BF0060004000030050C3
:10206000014B1B68184700BF2C07002038B50C4BEC
:10207000984213D100200D46FEF7A2FF094B1C79B0
:1020800024B10020FEF7A4FF112038BD0122204614
:102090001D601A71FEF79CFF204638BD002038BD38
:1020A000002000402C070020034B984203D1034B33
:1020B00000221A601A717047002000402C0700208F
:1020C0001B4BD3F8182102B970470021194AC3F8F5
:1020D0001811D3F8181192F8203082B0FF2B01911B
:1020E00001990FD0917F69B9D17F99B11F2B8ABF18
:1020F00011484FF0A04003F01F03012101FA03F340
:10210000C0F80C35002353771372D2E900310B4825
:1021100002B018471F2B8ABF07484FF0A04003F0BA
:102120001F03012101FA03F3C0F80835EAE700BFF5
:1021300000F0024034070020000300503C0700205C
:102140002DE9F84F0579B44F064605EBC50007EBBE
:102150008000007F002840F025810C4691469B4678
:102160004FEAC50A85B18B7BFF2B40F018818B6845
:10217000B3F1206F00F01381B3F1A05F00F00F8185
:102180000B7C002B40F00B81D6F80080A349404621
:10219000FFF76CFF002840F033810AEB050307EBE3
:1021A000830247F82390C2F804B0237B2278012BE6
:1021B00040F211811F2A86BF994902F01F024FF099
:1021C000A04101239340C1F8083523781F2B86BF17
:1021D00003F01F03924A4FF0A04203F5E073012180
:1021E00042F823106278FF2A00F001811F2A8BBF7A
:1021F00002F01F0C94468A494FF0A0410CF5E07E96
:10220000012303FA0CF34FF0030CC1F80C3541F82D
:102210002EC0A378FF2B00F0F0801F2B9C4694BFAC
:10222000634603F01F0303F5E0738CBFDFF8F0E1B2
:102230004FF0A04E04214EF82310A3780AEB0501BD
:1022400007EB810181F82130E37881F82030FF2B02
:1022500037D02179002940F0A8801F2B8ABF704910
:102260004FF0A04103F01F034FF0010E0EFA03F3ED
:10227000C1F80835E3781F2B88BF03F01F0303F56F
:10228000E0738CBFDFF898E14FF0A04E03214EF8C9
:102290002310237C7BB10AEB050307EB83030121A9
:1022A000997794F803E02179637CC8F814E5C8F8BD
:1022B0006815C8F864350AEB050307EB8303217939
:1022C000D977A37BFF2B1ED01F2B4FF0010E8ABFA7
:1022D00053494FF0A04103F01F030EFA03F3C1F876
:1022E0000835A37B1F2B88BF03F01F0303F5E073A2
:1022F0008CBFDFF82CE14FF0A04E03214EF82310E5
:10230000A37BC8F86C35E37BC8F860352378C8F840
:102310000835C8F80C25C8F810C5A368C8F82435D6
:10232000637B227B003B18BF0123022A6BD0032A68
:102330006FD0012A6AD0C8F85435A379C8F8C035DF
:102340000723C8F80035B9F1000F1FD03268637950
:1023500042F3073100294FEA123234DB01F16041C8
:1023600001F561415B01DBB281F80033336843F36F
:102370000732002A4FEA133308DB2A4C01215209A5
:1023800003F01F0301FA03F344F82230554407EB2E
:102390008507002201237A773B77BDE8F88F062076
:1023A000BDE8F88F0820BDE8F88F1F2B8ABFDFF843
:1023B00070E04FF0A04E03F01F03012101FA03F378
:1023C000CEF80C3556E7184902F00F025B011144B4
:1023D000DBB20B76CAE71F2A86BF114902F01F0243
:1023E0004FF0A04101239340C1F80C35EDE6A378EE
:1023F000FF2B4FF0FF327FF410AF4FF0FF3C1DE793
:102400001120BDE8F88F43F0040394E743F0020382
:1024100091E743F006038EE734070020C120000057
:102420000003005000E100E0FCEC00E02DE9F04387
:102430000268DFF874C1C2F87035067906EBC6038E
:102440000CEB83020746507F83B0002840F0888061
:102450009B000C465CF803304FEAC60E0BB101231B
:1024600053770EEB06050CEB850594E80F0095F805
:10247000209005F10C08B9F1FF0F88E80F0002D099
:10248000AB7F002B52D0226822B102F06043B3F13F
:10249000005F5BD1A36823B103F06043B3F1005F39
:1024A00054D13B686168C3F84425C3F84815D4E9A2
:1024B00002120020C3F83415C3F83825C3F81801F8
:1024C000D3F81821019201210EEB0602019CC3F8FA
:1024D0005005C3F8400519615CF822202AB140225A
:1024E000C3F8042303B0BDE8F083D3F81821002A11
:1024F000FBD076440CEB860C9CF82030FF2B41D0AF
:102500009CF81E20002A3DD19CF81F20002A3BD0B9
:102510001F2B8ABF23494FF0A04103F01F03012264
:1025200002FA03F3C1F80C35002016E0EB7FDBB1B3
:10253000B9F11F0F8ABF1B4A4FF0A04209F01F09D3
:10254000012303FA09F3C2F808359CE776440CEB43
:10255000860C00238CF81D30102003B0BDE8F083FA
:10256000112003B0BDE8F083B9F11F0F8ABF0D4AF7
:102570004FF0A04209F01F09012303FA09F3C2F842
:102580000C3580E70020E8E71F2B8ABF05494FF094
:10259000A04103F01F03012202FA03F3C1F808353A
:1025A0000020DAE7000300503407002030B56E4AFF
:1025B000D2F8043399058BB068D5D2F82431002BBA
:1025C00064D00023C2F82431D2F8243101934FF4AF
:1025D0000171664B0198C2F8081393F8291009B9E4
:1025E00001215160604902228DF81820D1F8802421
:1025F000C1F880249869D968099200240025CDE9A2
:102600000710C3E90645D3E9001206A89047564AC9
:10261000D2F81C31C3B1554B5869196A88426AD93E
:1026200093F8281001F0FF00002964D1C2F81C01C2
:10263000D2F81C11039103999C68186A196A205CEE
:1026400001311962C2F81C05474AD2F84431DBB1A6
:102650000021464BC2F84411D2F8440193F82910E6
:102660000090009809B1012111609A6962B1586A1D
:10267000D96800229A610122CDE907108DF818204F
:1026800006A8D3E9001290470BB030BD364AD2F805
:1026900004335B07BBD5D2F80831002BB7D0334BDE
:1026A000996900293ED00021C2F80811D2F808111A
:1026B00004910499D868596AD2F8182542545A6A84
:1026C000996901325A625A6A8A42A0D1DA69002AAB
:1026D00031D0DD685C6A18699A6101210022D860F6
:1026E000DA615A628DF81810CDE90754D3E9001267
:1026F00006A890478BE71C4A0021C2F81C11D2F8AB
:102700001C210292029A5A69002A9DD058699A683F
:102710008DF8181008905961079206A8D3E90012A5
:10272000904791E7C2F80811D2F808010590059882
:10273000D2F81825C7E793F8292012B90A4A0121CF
:102740005160094A4FF40171C2F80813596ADA68F6
:1027500008910024012007928DF81800D3E9001297
:102760009C6106A8904752E70020004058070020CF
:102770002DE9F041DFF8E48106792C2303FB068381
:1027800082B093F82A30002B40F09E8005460C461C
:1027900000686D491746FFF769FC002840F09080FB
:1027A0002368591C19D01F2B4FF001028ABF6749BB
:1027B0004FF0A04103F01F0302FA03F3C1F80835FC
:1027C00023681F2B86BF03F01F03604A4FF0A0420F
:1027D00003F5E073032142F8231063685A1C0BD001
:1027E0001F2B86BF03F01F03584A4FF0A04203F58A
:1027F000E073002142F823102B68A269C3F8242556
:10280000217D637D2A680B43C2F86C35D4E9001240
:102810002B68C3F81425C3F80C15237D012B5FD05A
:102820002C2303FB06F308EB03025760226948F8E8
:1028300003202A6897B30021237FC2F81C11D2F825
:102840001C2100922A68009FC2F84411D2F844115A
:102850002A6801913E4C0199C2F804432A6842F368
:10286000073100294FEA123232DB01F1604101F5F4
:1028700061415B01DBB281F800332A6842F3073320
:10288000002B4FEA123109DB324C01225B0901F0C7
:102890001F0102FA01F144F823102A682C2303FBDC
:1028A0000686012400230421C2F80015C6E9063378
:1028B00086F82A4086F82930736102B0BDE8F081BD
:1028C000112002B0BDE8F081082002B0BDE8F0811F
:1028D000214902F00F025B011144DBB20B76CCE719
:1028E000A368591C0BD01F2B86BF03F01F03174989
:1028F0004FF0A04103F5E073002241F82320E36884
:102900005A1C1AD01F2B8ABF10494FF0A04103F068
:102910001F03012202FA03F3C1F80835E3681F2BF5
:1029200088BF03F01F0303F5E0738CBF07494FF026
:10293000A041032241F82320E3682A68A168C2F875
:102940000835C2F810156BE7AD25000000030050F4
:102950008000020000E100E0FCEC00E058070020ED
:10296000F8B53E4F047902682C2303FB0473002161
:102970005B68C2F80015C3B10368394AC3F808237D
:10298000036843F30732002A4FEA13310EDB520982
:10299000344D2032012301F01F0103FA01F145F803
:1029A0002210BFF34F8FBFF36F8F0368D3F80C650E
:1029B000D3F81455D3F80825D3F810154FF0FF3C81
:1029C000C3F814C5C3F80CC503686645C3F808C549
:1029D000C3F810C50CD01F2E86BF06F01F06224B71
:1029E0004FF0A04306F5E0764FF0020C43F826C006
:1029F0006E1C0BD01F2D86BF05F01F051A4B4FF024
:102A0000A04305F5E075022643F825604D1C0BD068
:102A10001F2986BF01F01F01134B4FF0A04301F5A2
:102A2000E071022543F82150531C0BD01F2A86BFAA
:102A300002F01F020C4B4FF0A04302F5E07202219E
:102A400043F822100068FFF72FFB2C2303FB0474CC
:102A5000002384F82A306360F8BD00BF58070020C7
:102A60008402020000E100E0000300502DE9F04183
:102A7000314E05792C2303FB05630446586984B065
:102A800000284CD15A619960186283F828002268A6
:102A9000C2F81C01D2F81C11226802910121029F88
:102AA00091602268D3F808C0C2F81C01D2F81C114A
:102AB000019101991F6A196A1CF8077001311962A6
:102AC000C2F81C755A6812B104B0BDE8F0815F69A4
:102AD0001A6A216897421BD9864602E093F828209B
:102AE0000ABBD1F81C21002AF8D0C1F81CE1D1F8AA
:102AF0001C210392039AD3F820801A6A1CF80880DC
:102B000001321A62C1F81C851A6A9742E9D8216815
:102B1000D1F81C31002BFBD00123CB6004E0112045
:102B200004B0BDE8F0810F202C2303FB05650023D2
:102B30006B6104B0BDE8F0815807002030B5574BF9
:102B4000D3F824218BB0002A75D00022C3F82421A9
:102B5000D3F82421049202228DF81820049AD3F885
:102B600080144F4AC3F880140991D3F83C15D368F8
:102B70000891002400250793C2E9064511685368AF
:102B800006A89847454BD3F8442152B10021444A46
:102B9000C3F84411D3F844019169039003980029C4
:102BA00038D13E4BD3F820215AB10021C3F820116F
:102BB000D3F8202102920120394A029CD860506942
:102BC000D8B9364BD3F85821AAB10021C3F858110F
:102BD000D3F85801324A01900198506958B1D3F89E
:102BE0004C05936808908DF818105161079306A85A
:102BF000D2E9001398470BB030BDD3F84C05936869
:102C000008908DF818105161079306A8D2E90013B7
:102C10009847D6E7D3F83C35D168089300240025BF
:102C2000012307918DF81830C2E90645D2E9001357
:102C300006A89847B5E7D3F810110029A2D0C3F829
:102C40001021D3F810111648059105998469D3F81D
:102C50003C15A14296D1C469A4B1D3F80052846155
:102C600025F02005C3F80052D0E90343C2610122D8
:102C70000891C3600168436807948DF8182006A87E
:102C800098477FE7C26884610123CDE907218DF869
:102C90001830D0E9001306A8984773E700200040D9
:102CA000880700202DE9F0430779824E07EBC70320
:102CB00006EB830387B093F82030002B40F0B980F7
:102CC00004460D4600687C499046FFF7CFF900287E
:102CD00040F0AB802B68591C4FEAC70919D01F2B55
:102CE0004FF001028ABF75494FF0A04103F01F0366
:102CF00002FA03F3C1F808352B681F2B86BF03F0D7
:102D00001F036E4A4FF0A04203F5E073032142F81F
:102D100023106B685A1C0BD01F2B86BF03F01F03B8
:102D2000664A4FF0A04203F5E073002142F82310F9
:102D30002368AA69C3F82425297D6A7D23680A438C
:102D4000C3F86C25D5E900312268C2F80C35C2F809
:102D500014152B7D012B78D009EB070206EB8203BB
:102D6000C3F804802B6946F82230B8F1000F4BD02D
:102D700021682B7F524D0022C1F81021D1F810118B
:102D800001912168DDF804C0C1F82021D1F820119B
:102D900002912168DDF808C0C1F82421D1F824117E
:102DA00003912168DDF80CC0C1F84421D1F8441129
:102DB00004912168DDF810C0C1F85821D1F85811EC
:102DC000226805910599C2F80453226842F307313D
:102DD00000294FEA123230DB01F1604101F5614117
:102DE0005B01DBB281F80033226842F30733002B2A
:102DF0004FEA123109DB334D01225B0901F01F015B
:102E000002FA01F145F8231022684F4406EB8706C9
:102E1000002301240821C2F80015C6E9063386F80C
:102E20002040736107B0BDE8F083112007B0BDE812
:102E3000F083082007B0BDE8F083234902F00F02B9
:102E40005B011144DBB20B76CEE7AB68591C0BD0AB
:102E50001F2B86BF03F01F0318494FF0A04103F555
:102E6000E073002241F82320EB685A1C1AD01F2B74
:102E70008ABF12494FF0A04103F01F03012202FA5A
:102E800003F3C1F80835EB681F2B88BF03F01F035D
:102E900003F5E0738CBF09494FF0A041032241F8CC
:102EA0002320EB682268A968C2F80835C2F810151B
:102EB00052E700BF880700203D2B000000030050B0
:102EC0001003420000E100E0FCEC00E02DE9F041DD
:102ED0000579564C05EBC50304EB830301465B689B
:102EE000006882B0EE00C3B1514BC0F808330B68E4
:102EF00043F30732002A4FEA13330EDB5209DFF89F
:102F000038C12032012703F01F0307FA03F34CF8FE
:102F10002230BFF34F8FBFF36F8F721904EB820221
:102F2000D0F80032926923F02003C0F8003242B199
:102F30000023C0F84431D0F8443100930123009AB3
:102F400043600023C0F85831D0F858310193731909
:102F5000012204EB8303019FC2609A69D0F85831C3
:102F6000002BFBD01AB1D0F84431002BF6D000234F
:102F7000C0F800350B684FF0FF38D3F80CE5D3F8F4
:102F800014C5D3F80825D3F81075C3F80C85C3F819
:102F900014850B68C645C3F80885C3F810850CD0A6
:102FA000BEF11F0F86BF0EF01F0E22494FF0A04149
:102FB0000EF5E07E022341F82E30BCF1FF3F0CD02D
:102FC000BCF11F0F86BF0CF01F0C1A494FF0A04137
:102FD0000CF5E07C022341F82C30791C0BD01F2F1C
:102FE00086BF07F01F0713494FF0A04107F5E077B0
:102FF000022341F82730531C0BD01F2A86BF02F052
:103000001F020C494FF0A04102F5E072022341F883
:103010002230FFF749F8354404EB8504002384F897
:103020002030636002B0BDE8F08100BF8807002057
:10303000100342000003005000E100E0F0B401F092
:103040006044B4F1005F82B02CD10579274E05EBC6
:10305000C50406EB840403466069EF0000283ED1F6
:103060006261A1601A68C2F82001D2F820C11A6812
:10307000CDF804C0DDF804C0C2F85801D2F85821D8
:1030800000921A68DDF800C0D4F814C0C2F84415E4
:10309000C2F848C51A6801219160626832B102B075
:1030A000F0BC7047102002B0F0BC70471A6800E016
:1030B000C8B9D2F82011D2F858010029F8D090B937
:1030C0000121D1601B68D3F85821002AFBD07B195D
:1030D00006EB830300225A6102B0F0BC7047112056
:1030E00002B0F0BC70470F20F1E700BF8807002056
:1030F00038B5104A104C114B114D1249A41AE4086E
:10310000240444F00304012220461A70FDF78EFCCB
:103110002B7803B938BD0C492046FDF787FC2846BB
:1031200000F00EFA294682B22046BDE83840FDF78D
:1031300081BB00BFC8380000F0380000D207002073
:10314000AC070020283700003C3700002DE9F0478D
:1031500001208AB0FDF7BEFE4FF480410020FDF74C
:10316000F7F9002859D1304C304EFDF7E1F994E8D9
:103170000F0001AF103487E80F000FCC05AD0FC56D
:10318000216829604FF0805100231E2501240791FA
:10319000274A28488DF8183005A905968DF8225041
:1031A0008DF82440FEF7CCFF002839D1224B23486C
:1031B0002349244E244DDFF894A0DFF87890C01AFC
:1031C000C008000440F00300FDF730FC4FF0000899
:1031D00046F0010625220021504600F0A9F90F23F0
:1031E00000223946484685F80080FFF71FF908B1EC
:1031F00010E020BF2B78002BFBD0FDF7F9F9002859
:10320000FBD1FDF74DFEC8244FF47A40B047013C96
:10321000FAD1DFE7FDF78CFEECE7FDF789FEA2E7C8
:10322000FDF786FEC2E700BF6437000003041C1DE3
:10323000F130000098370000C8380000F038000076
:103240004837000090370000D2070020AC0700206C
:1032500010B4814B1B68082B21D0804AD2F88830EB
:1032600043F47003C2F88830BFF34F8FBFF36F8F02
:10327000794B1B68082B00F0AA804FF01023D3F87D
:103280000022002AC0F2B680D3F80432002BC0F22C
:10329000B180734B734A1A605DF8044B70474FF06E
:1032A00080414FF080520020C1F80C016E4BC1F8F4
:1032B0001001C1F83805D2F80414C3F82015D2F86B
:1032C0000814C3F82415D2F80C14C3F82815D2F842
:1032D0001014C3F82C15D2F81414C3F83015D2F812
:1032E0001814C3F83415D2F81C14C3F84015D2F8DA
:1032F0002014C3F84415D2F82414C3F84815D2F8A2
:103300002814C3F84C15D2F82C14C3F85015D2F871
:103310003014C3F85415D2F83414C3F86015D2F839
:103320003814C3F86415D2F83C04C3F868054F4953
:10333000D2F84004C3F86C050968D2F84424C3F8F5
:103340007025052937D84A4B5B5C13B1494B4A4A73
:103350001A604A4B5B5C63B13F4B49491B68434A67
:10336000FB20C1F81805082B11687FF476AF0529FA
:1033700021D8444B5B5C93B14348444B364C0268C4
:103380001B682468394922F00F0203F00F0313432E
:10339000082C096803607FF460AF05290BD83C4B0B
:1033A0005B5C43B12C4B3B4A1B684FF40071082B0C
:1033B00011607FF452AF4FF08043D3F80024D2075E
:1033C0007FF54BAF6FF00102C3F8002445E7274BB0
:1033D0001B68052B08D94FF010224FF08043D2F81C
:1033E0000822C3F8582548E72B4AD35C002B3FF44A
:1033F00044AFF0E7294A0123C2F80435D2F800347B
:10340000002BFBD04FF010231221244AC3F80012E6
:10341000D2F80034002BFBD04FF0102312211F4AAA
:10342000C3F80412D2F80034002BFBD000231B4950
:10343000C2F80435D1F80034002BFBD0BFF34F8F16
:103440000649174BCA6802F4E0621343CB60BFF32E
:103450004F8F00BFFDE700BF3001001000ED00E01E
:10346000440000200090D00300C000403401001050
:10347000A83700008C56004048810300A8370000A0
:1034800000F00040A8370000E40E00405802001091
:10349000A837000040960240A037000000E001403D
:1034A0000400FA0508B5074B044613B10021AFF339
:1034B0000080054B1868836A03B19847204600F0E6
:1034C00047F800BF00000000B038000070B50D4D97
:1034D0000D4C641BA4100026A64209D10B4D0C4CC8
:1034E00000F038F8641BA4100026A64205D170BD78
:1034F00055F8043B98470136EEE755F8043B9847EA
:103500000136F2E7A8000020A8000020A800002053
:10351000AC0000200A44914200F1FF3300D1704713
:1035200010B511F8014B03F8014F9142F9D110BDCC
:1035300002440346934200D1704703F8011BF9E7A8
:10354000034613F8012B002AFBD1181A01387047E3
:10355000FEE700BFF8B500BFF8BC08BC9E46704748
:10356000F8B500BFF8BC08BC9E467047FFFFFFFFE0
:10357000FFFFFFFFFFFFFFFFFFFFFFFF0000000057
:10358000000000000000D60106010000E103000079
:103590004D040000DD030000756172745F6C6F679D
:1035A0005F6261636B656E64000000004261636B83
:1035B000656E647320666C75736865640000000056
:1035C00061707000040600207F0000008406002067
:1035D0001B5B313B33316D0025734C6F6773206487
:1035E000726F70706564202825642925730D0A00A8
:1035F0001B5B306D00000000257300003C25733E0E
:103600002025733A200000000D0A000020253032EA
:1036100078000000202020007C00000025630000CE
:103620001B5B313B33306D001B5B313B33326D0034
:103630001B5B313B33336D001B5B313B33346D001F
:103640001B5B313B33356D001B5B313B33366D000B
:103650001B5B313B33376D006572726F7200000087
:103660007761726E696E6700696E666F00000000B8
:103670006465627567000000F035000020360000C8
:10368000D035000028360000303600003836000003
:1036900040360000483600005036000000000000B0
:1036A00058360000603600006836000070360000B2
:1036B0000D0E0F106170705F627574746F6E000094
:1036C000466174616C206572726F72005379737415
:1036D000656D207265736574000000006170705F35
:1036E00074696D657200000030313233343536371D
:1036F0003839414243444546736F72746C69737440
:10370000000000004750494F5445000050525300FC
:103710005350494D00000000554152540000000034
:1037200055415254450000005472616E73666572D3
:1037300020636F6D706C657465642E002052656344
:1037400065697665643A00004E52465820535049E8
:103750004D206578616D706C65207374617274655D
:10376000642E00001C00002025000000AC07002093
:1037700025000000FFFFFFFF0006FF0000000040E3
:103780000000FF0200020000000000000000000036
:103790000338FDD87047000000F002400000000030
:1037A00000000000010100000100000000000020F6
:1037B00020202020202020202828282828202020E1
:1037C0002020202020202020202020202020208891
:1037D00010101010101010101010101010101004F5
:1037E0000404040404040404041010101010101045
:1037F0004141414141410101010101010101010139
:10380000010101010101010101011010101010104E
:103810004242424242420202020202020202020208
:103820000202020202020202020210101010200024
:103830000000000000000000000000000000000088
:103840000000000000000000000000000000000078
:103850000000000000000000000000000000000068
:103860000000000000000000000000000000000058
:103870000000000000000000000000000000000048
:103880000000000000000000000000000000000038
:103890000000000000000000000000000000000028
:1038A0000000000000000000000000000000000018
:0838B0004800002000000000A8
:1038B8008C3500000000000098350000140000203E
:1038C80004370000000000000C3700000000000072
:1038D800103700000000000018370000000000004A
:1038E8002037000000000000C0350000000003037E
:1038F800B436000000000000DC36000000000000C4
:08390800F83600000000000089
:1039100014010020DC010020E40100201C01002033
:04392000180000008B
:083924001CC9FF7F0100000037
:10392C0000000000002000400000000000200040CB
:10393C000000000000000000FF0000004E6F7264E9
:10394C0069633132333435363738393031323334C8
:10395C00353637383930313233343536373839300B
:10396C00000000000090D0030000000000000000E8
:10397C00000000000000000000000000000000003B
:10398C00000000000000000000000000000000002B
:10399C00000000000000000000000000000000001B
:1039AC00000000000000000000000000000000000B
:1039BC0000000000000000000000000000000000FB
:1039CC0000000000000000002502000001020000C1
:04000003000002BD3A
:00000001FF
