:1010000000000420BD120000E5120000E7120000FD
:10101000E9120000EB120000ED12000000000000D9
:10102000000000000000000000000000EF120000BF
:10103000F112000000000000F3120000F5120000A1
:10104000F7120000F7120000F7120000F71200007C
:10105000F7120000F7120000F7120000F71200006C
:10106000F7120000F7120000F7120000F71200005C
:10107000F7120000F7120000F7120000F71200004C
:10108000F7120000F7120000F7120000F71200003C
:10109000F7120000F7120000F7120000F71200002C
:1010A000F7120000F7120000F7120000F71200001C
:1010B000F7120000F712000000000000000000001E
:1010C000F7120000F7120000F7120000F7120000FC
:1010D000F7120000F7120000F7120000F7120000EC
:1010E000F7120000F7120000F712000000000000E5
:1010F00000000000F712000000000000F7120000DE
:1011000000000000000000000000000000000000DF
:1011100000000000000000000000000000000000CF
:1011200000000000000000000000000000000000BF
:1011300000000000000000000000000000000000AF
:10114000000000000000000000000000000000009F
:10115000000000000000000000000000000000008F
:10116000000000000000000000000000000000007F
:10117000000000000000000000000000000000006F
:10118000000000000000000000000000000000005F
:10119000000000000000000000000000000000004F
:1011A000000000000000000000000000000000003F
:1011B000000000000000000000000000000000002F
:1011C000000000000000000000000000000000001F
:1011D000000000000000000000000000000000000F
:1011E00000000000000000000000000000000000FF
:1011F00000000000000000000000000000000000EF
:1012000010B5054C237833B9044B13B10448AFF340
:1012100000800123237010BD740000200000000036
:10122000BC16000008B5034B1BB103490348AFF3DC
:10123000008008BD0000000078000020BC160000FF
:10124000A3F5803A704700BF174B002B08BF134B24
:101250009D46FFF7F5FF00218B460F461348144AC1
:10126000121A00F0FFF90E4B002B00D098470D4BDF
:10127000002B00D098470020002104000D000D48ED
:10128000002802D00C48AFF3008000F0C7F920001E
:10129000290000F06FF800F0ADF900BF0000080071
:1012A0000000000000000000000004207400002086
:1012B0009000002000000000000000000649074ADE
:1012C000074B9B1A03DD043BC858D050FBDC00F0F1
:1012D00067F8FFF7B9FF0000C816000008000020FB
:1012E00074000020FEE7FEE7FEE7FEE7FEE7FEE70C
:1012F000FEE7FEE7FEE7FEE70A4B185C1F288ABF01
:1013000009494FF0A04100F01F00D1F80435012237
:10131000824022EA03001340C1F80805C1F80C35E9
:10132000704700BF9016000000030050C10707D4AB
:10133000830742BF4FF0A0430C22C3F878277047C1
:101340004FF0A043032210B44FF40011C3F87027EC
:101350004FF08054C3F854278207C3F80C45C3F8F4
:101360000C1504D54FF0A0430C22C3F878275DF884
:10137000044B704738B50120084DFFF7D7FF45F003
:1013800001050020FFF7B8FF0120FFF7B5FF322469
:101390004FF47A40A847013CFAD1F2E7A0160000CA
:1013A00010B4814B1B68082B21D0804AD2F88830BA
:1013B00043F47003C2F88830BFF34F8FBFF36F8FD1
:1013C000794B1B68082B00F0AA804FF01023D3F84C
:1013D0000022002AC0F2B680D3F80432002BC0F2FB
:1013E000B180734B734A1A605DF8044B70474FF03D
:1013F00080414FF080520020C1F80C016E4BC1F8C3
:101400001001C1F83805D2F80414C3F82015D2F839
:101410000814C3F82415D2F80C14C3F82815D2F810
:101420001014C3F82C15D2F81414C3F83015D2F8E0
:101430001814C3F83415D2F81C14C3F84015D2F8A8
:101440002014C3F84415D2F82414C3F84815D2F870
:101450002814C3F84C15D2F82C14C3F85015D2F840
:101460003014C3F85415D2F83414C3F86015D2F808
:101470003814C3F86415D2F83C04C3F868054F4922
:10148000D2F84004C3F86C050968D2F84424C3F8C4
:101490007025052937D84A4B5B5C13B1494B4A4A42
:1014A0001A604A4B5B5C63B13F4B49491B68434A36
:1014B000FB20C1F81805082B11687FF476AF0529C9
:1014C00021D8444B5B5C93B14348444B364C026893
:1014D0001B682468394922F00F0203F00F031343FD
:1014E000082C096803607FF460AF05290BD83C4BDA
:1014F0005B5C43B12C4B3B4A1B684FF40071082BDB
:1015000011607FF452AF4FF08043D3F80024D2072C
:101510007FF54BAF6FF00102C3F8002445E7274B7E
:101520001B68052B08D94FF010224FF08043D2F8EA
:101530000822C3F8582548E72B4AD35C002B3FF418
:1015400044AFF0E7294A0123C2F80435D2F8003449
:10155000002BFBD04FF010231221244AC3F80012B5
:10156000D2F80034002BFBD04FF0102312211F4A79
:10157000C3F80412D2F80034002BFBD000231B491F
:10158000C2F80435D1F80034002BFBD0BFF34F8FE5
:101590000649174BCA6802F4E0621343CB60BFF3FD
:1015A0004F8F00BFFDE700BF3001001000ED00E0ED
:1015B000080000200090D00300C00040340100105B
:1015C000B01600008C56004048810300B0160000A1
:1015D00000F00040B0160000E40E00405802001079
:1015E000B016000040960240A816000000E001403E
:1015F0000400FA0508B5074B044613B10021AFF308
:101600000080054B1868836A03B19847204600F0B4
:1016100031F800BF00000000B816000070B50D4D95
:101620000D4C641BA4100026A64209D10B4D0C4C96
:1016300000F022F8641BA4100026A64205D170BD5C
:1016400055F8043B98470136EEE755F8043B9847B8
:101650000136F2E76C0000206C0000206C000020D6
:101660007000002002440346934200D1704703F803
:10167000011BF9E7FEE700BFF8B500BFF8BC08BCE6
:101680009E467047F8B500BFF8BC08BC9E46704740
:101690001C15000000000000000000000000000019
:1016A0000338FDD870470000000000000101000071
:1016B00001000000000000000C00002000000000FD
:0816C00080FBFF7F0100000028
:1016C8000090D003000000000000000000000000AF
:1016D8000000000000000000000000000000000002
:1016E80000000000000000000000000000000000F2
:1016F80000000000000000000000000000000000E2
:1017080000000000000000000000000000000000D1
:1017180000000000000000000000000000000000C1
:0C1728000000000025120000011200006B
:04000003000012BD2A
:00000001FF
