:020000022000DC
:1070000000000420BD720200E5720200E772020077
:10701000E9720200EB720200ED7202000000000053
:10702000000000000000000000000000EF720200FD
:10703000F172020000000000F3720200F57202001B
:1070400035C10200F772020051CF0200F772020050
:10705000F7720200F772020055CE0200F7720200CA
:10706000F7720200F7720200F7720200F772020074
:10707000F7720200F7720200F7720200F772020064
:10708000F77202009D9E0200F7720200F772020082
:10709000F7720200F7720200C1190300F7720200D2
:1070A000F7720200F7720200F7720200F772020034
:1070B000F7720200F77202000000000000000000FA
:1070C000F7720200F7720200F7720200F772020014
:1070D000F7720200F7720200F7720200F772020004
:1070E000F7720200F7720200F7720200000000005F
:1070F00000000000F772020000000000F7720200BA
:10710000000000000000000000000000000000007F
:10711000000000000000000000000000000000006F
:10712000000000000000000000000000000000005F
:10713000000000000000000000000000000000004F
:10714000000000000000000000000000000000003F
:10715000000000000000000000000000000000002F
:10716000000000000000000000000000000000001F
:10717000000000000000000000000000000000000F
:1071800000000000000000000000000000000000FF
:1071900000000000000000000000000000000000EF
:1071A00000000000000000000000000000000000DF
:1071B00000000000000000000000000000000000CF
:1071C00000000000000000000000000000000000BF
:1071D00000000000000000000000000000000000AF
:1071E000000000000000000000000000000000009F
:1071F000000000000000000000000000000000008F
:1072000010B5054C237833B9044B13B10448AFF3E0
:1072100000800123237010BD102400200000000016
:10722000142E030008B5034B1BB103490348AFF309
:10723000008008BD0000000014240020142E03006C
:10724000A3F5803A704700BF174B002B08BF134BC4
:107250009D46FFF7F5FF00218B460F461348144A61
:10726000121A0AF02BFE0E4B002B00D098470D4B44
:10727000002B00D098470020002104000D000D488D
:10728000002802D00C48AFF300800AF0E5FD200092
:10729000290007F0B5FF0AF0CBFD00BF0000080091
:1072A0000000000000000000000004201024002066
:1072B0000830002000000000000000000649074AD6
:1072C000074B9B1A03DD043BC858D050FBDC04F08D
:1072D0005FF9FFF7B9FF00001C2F03000023002017
:1072E00010240020FEE7FEE7FEE7FEE7FEE7FEE7EC
:1072F000FEE7FEE7FEE7FEE780B584B000AF78600A
:107300007B68002B0AD0074B43F00103FB607B68CE
:107310009B01BB60FB68B868984700E000BF10376E
:10732000BD4680BD201F030080B582B000AF7860ED
:107330007B68002B0AD04FF47A70FFF7DDFF7B6883
:10734000013B7B607B68002BF5D100E000BF083774
:10735000BD4680BD80B500AF08F0DCF800BF80BD41
:1073600080B588B000AFF860B9607A607B68002BA8
:1073700033D00023FB610323BB61BA68FB6913446C
:107380007A681946002008F075F87861FA697B6917
:107390001344FB617A687B69D31A7B607B69002B9D
:1073A00013D1104B1B7883F00103DBB2002B13D1F8
:1073B0000120FFF7B9FFBB69013BBB61BB69002B33
:1073C00003D1084B00221A7007E0064B01221A7005
:1073D0007B68002BD1D100E000BF00BF2037BD4645
:1073E00080BD00BF2C24002080B584B002AF78603F
:1073F0003960064B00934023054A3968786800F0ED
:107400001DF800BF0837BD4680BD00BF6173020094
:107410003024002080B483B000AF786000BF0C3708
:10742000BD465DF8047B704780B483B000AF7860E0
:1074300000BF0C37BD465DF8047B704780B5A0B037
:1074400002AFF860B9607A603B60B86803F008FC8E
:107450007B68FB643B683B6500237B65002387F802
:1074600058300023FB65D7F880303B6600237B67EC
:1074700007F134017B6F0822B86803F0B5FC0823DC
:107480007B67FB6B3B643B8FA7F844307B8FA7F88F
:107490004630002387F8493097F8343003F003036F
:1074A000DBB2012B29D17B6BC3F39523BB6697F825
:1074B0003430C3F3C203DBB287F84830BB8EC3F36A
:1074C0008313DBB27B667B6E9A0007F11C017B6F36
:1074D000B86803F089FC7B6E9B007A6F13447B676E
:1074E00007F1400207F11C0107F14C03009313461A
:1074F0007A6EB86E00F0ECFF32E097F8343003F0AB
:107500000303DBB2022B2BD1FB8EC3F389139BB297
:107510003B6797F83430C3F3C203DBB287F84830D7
:107520003B6F082B28BF0823FB6607F114017B6F14
:10753000FA6EB86803F058FC7A6FFB6E13447B67F1
:107540003A6FFB6ED31A3B6707F14C0307F1400219
:1075500007F11400F96E01F05DF83B6F002BDFD1ED
:10756000B86803F08DFB00BF7837BD4680BD0000D2
:1075700080B582B000AF78607B681B781A460D4BEF
:107580009B5C002B05D07B680433184606F0D4FFC3
:107590000BE07B681B781A46064B9B5C002B04D1E2
:1075A0007B680C33184606F03DF900BF0837BD462E
:1075B00080BD00BF8C2F002080B586B000AFF86082
:1075C000B9601346FB7100237B61FB681B781A4688
:1075D000104B9B5C002B08D0FB680433FA79B96828
:1075E000184607F00DF878610EE0FB681B781A4624
:1075F000084B9B5C002B07D1FB680C33FA79B96808
:10760000184606F087F978617B6918461837BD4639
:1076100080BD00BF8C2F002080B483B000AF7860A5
:107620003960044B01221A7000BF0C37BD465DF86B
:10763000047B7047B0240020B0B58CB000AF034687
:10764000FB711B4B07F108041D460FCD0FC495E8D5
:107650000F0084E80F001F23BB604FF0FF33FB6077
:107660004FF0FF333B614FF0FF337B614FF0EB7323
:107670003B62FB79002B01D00E4A00E0002207F1AB
:10768000080319460C4804F07BFBF862FB6ABB62F6
:10769000BB6A002B04D0094A4321B86A01F05EFBA3
:1076A000074AFB79137000BF3037BD46B0BD00BF3D
:1076B000701F03001976020000230020281F03001A
:1076C000B124002080B582B000AF0123FB71FB79AB
:1076D0001846FFF7B1FF00BF0837BD4680BD000068
:1076E00080B588B000AFF860B9607A607B68FB77DE
:1076F000124B00221A70FB7F1A46B9681048FFF738
:107700005BFFB861BB697B617B69002B04D00D4ACC
:107710005321786901F022FB00BF0B4B1B78002B33
:1077200007D0064B1B78DBB283F00103DBB2002BE2
:10773000F3D100BF2037BD4680BD00BFB02400207C
:1077400000230020281F0300B124002080B584B04E
:1077500002AF78603960064B00934023054A3968D0
:107760007868FFF76BFE00BF0837BD4680BD00BFDD
:10777000E17602007024002080B483B000AF78600E
:1077800000BF0C37BD465DF8047B704780B582B002
:1077900000AF78600448FFF7EBFE0020FFF74CFFD6
:1077A00000BF0837BD4680BD0023002080B483B0F1
:1077B00000AF78607B68DB6801225A7100BF0C372C
:1077C000BD465DF8047B704780B582B000AF4FF0D6
:1077D000FF337B60FFF7BEFD04210A4800F08AFDFD
:1077E00078600848FFF7E2FFFFF76CFF04210648C6
:1077F00000F080FD78600448FFF7D8FF00BF08372D
:10780000BD4680BDF42E0300042F030080B582B076
:1078100000AF786039607B681B681B6839687868DE
:10782000984700BF0837BD4680BD80B582B000AF25
:1078300078607B681B685B687868984700BF08378A
:10784000BD4680BD80B582B000AF78607B681B68A4
:107850009B687868984700BF0837BD4680BD80B4F4
:1078600083B000AF78600B46FB707B68DB68FA780A
:107870001A7100BF0C37BD465DF8047B704780B4B9
:1078800083B000AF78607B68DB681B7918460C37E3
:10789000BD465DF8047B704780B483B000AF78606C
:1078A0007B68DB6801225A7100BF0C37BD465DF86A
:1078B000047B704780B483B000AF78607B68DB687E
:1078C0005B7918460C37BD465DF8047B70470000B5
:1078D00080B584B000AF786039600C4B00221A701C
:1078E0000B4803F023F9F860FB68002B01D0FB681C
:1078F00008E0084803F011FB074A084BD31ADB08DD
:10790000BB60002318461037BD4680BD1C260020F2
:10791000682E0300C01F0300F42E03007C2E03001A
:1079200080B400AF044A054BD31ADB081846BD46A5
:107930005DF8047B704700BFF42E03007C2E03002B
:1079400080B586B000AF78600B46FB70FB78002BEB
:107950001FD0FFF7E5FF386100237B6113E07B69EF
:107960009B000E4A1344FB60FB681B881A467B6829
:107970001B689A4204D17B687A691A60002309E087
:107980007B6901337B617A693B699A42E7D30523BE
:1079900000E0002318461837BD4680BD10240020A3
:1079A00080B584B000AF78600B46FB70FA783B1D61
:1079B00011461846FFF7C4FF0346002B07D17B682A
:1079C000DB00054A1344FB60FB681B6800E00023F2
:1079D00018461037BD4680BD7C2E030080B485B0AC
:1079E00000AF78600B46FB707B68DB00144A1344E1
:1079F000BB60FB78013B032B18D801A252F823F09F
:107A0000117A0200177A02001D7A0200257A02001C
:107A10000223FB730DE00423FB730AE0BB681B79B0
:107A2000FB7306E0BB685B79FB7302E00023FB732A
:107A300000BFFB7B18461437BD465DF8047B7047DA
:107A40007C2E030080B485B000AF786039600023DD
:107A5000FB737B681B7803F00403DBB2002B23D09D
:107A60007B681B78C3F30103DBB2012B02D0022B2E
:107A70000CD017E03B681B687A681288C2F3831247
:107A8000D2B213449A1C3B681A600BE03B681B6837
:107A90007A685288C2F3891292B213449A1C3B68E6
:107AA0001A6000BF0123FB73FB7B18461437BD46E9
:107AB0005DF8047B7047000080B58AB000AF0023FA
:107AC000FB84384802F0F2FB374802F0EFFB374BFB
:107AD0009B683B61364B1B68BB613A69BB691340CD
:107AE00002339B00314A134404333B6207F1100315
:107AF0001946386AFFF7A6FF0346002B09D03A69FA
:107B0000BB69134002339B00284A134404333B6291
:107B1000ECE700BF0023FB6111E03B695A1C3A61AE
:107B2000BA691340FA699200391D0A441F490233A9
:107B30009B000B445B681360FB690133FB61FB69CD
:107B4000012BEAD93B79C3F30103DBB2012B0DD042
:107B5000022B16D17B89FB84FB88C3F389139BB26C
:107B600003339A083B6913443B610BE07B89FB8438
:107B7000BB88C3F38313DBB21A463B6913443B61F2
:107B800000E000BF084802F09EFB78617B69002B93
:107B900002D03B69054A9360FB8C18462837BD46E6
:107BA00080BD00BF342A0020302A00201C2600207F
:107BB0002423002080B584B000AF0021074802F0E4
:107BC000E0FAF860FB68BB60BB6883F310037B607E
:107BD0007B6818461037BD4680BD00BF382A00209C
:107BE00080B588B000AFF860B9607A603B60FB6830
:107BF0001B0CBB61FFF7DEFFF861FB6919043B68F2
:107C00005A1CBB6A1340BA690A431B4902339B00E2
:107C10000B445A603A68BB6A134002339B00164A11
:107C2000134404337B61FB6803F00703D9B27A691C
:107C3000137861F3C50313707B6803F00F03D9B2A7
:107C40007A69138861F389131380BB68C3F3150144
:107C50007A69136861F39F2313607A6913780121AD
:107C600061F3010313707A6913786FF38203137061
:107C700000BF2037BD4680BD1C26002080B400AF69
:107C800000BFBD465DF8047B7047000080B58CB036
:107C900000AFF860B9601346FB71FB680233BB624A
:107CA000012387F827300023FB7607F11B031846D2
:107CB00001F054FD384B5A68BB681A60374B1A689C
:107CC000354B9968344B5B68CB1A13440133FB6224
:107CD00014E00121324802F0B7FAFFF7EDFEF86137
:107CE000F9692F4802F0B0FA2C4B1A682A4B9968B0
:107CF000294B5B68CB1A13440133FB62BA6AFB6AF7
:107D00009A42E6D897F82730002B3BD000237B61BE
:107D1000FB79002B11D03B7D012262F301033B75FF
:107D20003B7D43F004033B75FB6803F00F03DAB2BD
:107D3000BB8A62F38913BB8210E03B7D022262F3AF
:107D400001033B753B7D43F004033B75FB68C3F3C4
:107D500009039AB2FB8A62F38F13FB820E4B5A68B7
:107D60000E4B1B68134002339B000B4A1344043331
:107D70003B627A693B6A1A60074B5A68BB6A1344D4
:107D8000054A5360FB7E184601F0F3FC97F8273054
:107D900018463037BD4680BD1C2600202423002015
:107DA000382A002080B58AB002AFF860B9607A60E6
:107DB0003B60214B1B687B6107F1100301221946D0
:107DC0003868FFF763FF0346002B24D03B6902337A
:107DD000FB610023BB6111E0BB699B007A681A4418
:107DE000FB69591CF96179690B4012681349023328
:107DF0009B000B445A60BB690133BB61BA693B68A5
:107E00009A42E9D33A697B69009313463A68B968A4
:107E1000F868FFF7E5FE094B1B78002B05D000BF83
:107E200000F074F80346002BFAD1FFF727FF00BFDC
:107E30002037BD4680BD00BF242300201C26002023
:107E400080B582B000AF78603960002300223968C5
:107E50007868FFF7A7FF00BF0837BD4680BD80B533
:107E600086B000AFF860B9607A607B687B6107F12B
:107E700014020123B968F868FFF794FF00BF1837B0
:107E8000BD4680BD80B586B000AFF860B9607A604D
:107E90003B607B683B613B687B6107F1100202231A
:107EA000B968F868FFF77EFF00BF1837BD4680BD90
:107EB00080B58AB000AFF860B9607A603B607B68DB
:107EC0007B613B68BB613B6BFB617B6B3B62BB6B6C
:107ED0007B6207F114020523B968F868FFF762FFB7
:107EE00000BF2837BD4680BD80B400AF064B9A68FE
:107EF000054B5B689A420CBF01230023DBB2184696
:107F0000BD465DF8047B70471C26002080B598B004
:107F100000AFFFF7E9FF0346002B01D00023ABE1E0
:107F2000924B0022C3F81824BFF34F8F00BF8F4B32
:107F30009B683B618E4B1B683B643A693B6C13400A
:107F400002339B00894A134404337B640023FB659E
:107F50000023BB650023FB6307F110031946786C0F
:107F6000FFF770FD0346002B19D0804BD3F818346F
:107F7000002B14D17D4B5A683B699A4205D87B4B44
:107F80005B687A4A9360002376E13A693B6C134060
:107F900002339B00754A134404337B64DCE70023FF
:107FA0007B6511E03B695A1C3A613A6C13407A6D6B
:107FB0009200391D0A446D4902339B000B445B68F3
:107FC00013607B6D01337B657B6D012BEAD93B79B7
:107FD00003F00303DBB2022B40F09280FB88C3F373
:107FE00089139BB27B63FB88C3F389139BB2502B2D
:107FF00028BF50239BB23B633B6BC3F309039AB288
:10800000FB8862F38F13FB803B6B0833FB623B7989
:10801000C3F3C203DBB2FB63F96A564802F092FD78
:10802000F865FB6D002B00F0C680F86D02F018FEBD
:10803000391DBB6D0822F86D02F0C0FEBB6D083320
:10804000BB653B69DA433B6C134001339B00BB6269
:108050003A6BBB6A9A423DD9BB6A002B08D03A6999
:108060003B6C134002339B00404A1344043300E04E
:10807000414B3B62BB6A002B02D0BB6ADBB201E022
:108080003B6BDBB2FB77BB6A002B01D03A4B00E0C5
:108090000023BB61BB6A002B06D03B6BDAB2BB6A24
:1080A000DBB2D31ADBB200E00023FB75FA7FBB6DB5
:1080B000396AF86D02F082FEFB7FBA6D1344BB652E
:1080C000BB69002B15D0FA7DBB6DB969F86D02F064
:1080D00075FE0EE03A693B6C134002339B00234A65
:1080E000134404337B62BB6D3A6B796AF86D02F01E
:1080F00065FE7B6B03339A083B6913443B615AE08E
:108100003B7903F00303DBB2012B54D1BB88C3F3EB
:108110008313DBB2062B28BF0623DAB2BB8862F3D7
:108120008913BB80BB88C3F38313DBB20233BB6309
:108130003B79C3F3C203DBB2FB63BB6B9B00194605
:108140000C4802F0FFFCF865FB6D002B33D0F86D96
:1081500002F086FD391DBB6D0822F86D02F02EFE7F
:10816000BB6D0833BB6500237B651CE01C2600202B
:1081700024230020682E0300282600203B695A1C77
:108180003A613A6C134002339B003D4A1344191D77
:10819000BB6D0422F86D02F011FEBB6D0433BB65AC
:1081A0007B6D01337B65BB88C3F38313DBB21A4657
:1081B0007B6D9342E2D3FB6D002B3DD0304BD3F867
:1081C00010343B652E4BD3F81834002B1BD0F86DC0
:1081D00002F056FD4AE0002387F84F30386DFFF774
:1081E00069FB0346002B02D0012387F84F3097F834
:1081F0004F30002B03D0F96D386DFFF707FB3B6D57
:10820000DB681B683B653B6D002BE4D1F86D02F029
:1082100037FD0023FB70FB1C184601F09FFA184B3A
:10822000D3F81834002B02D13B69154A9360FB78D0
:10823000184601F09EFA19E0114BD3F81034BB64D4
:1082400006E0B86CFFF7FEFABB6CDB681B68BB642A
:10825000BB6C002BF5D10B4A0B4BD31ADB081B046C
:1082600043F0020309491846FFF7EAFDFFF73CFE19
:10827000034683F00103DBB218466037BD4680BD7C
:108280001C260020A42E03007C2E0300D01F030018
:1082900080B584B000AF0023FB6020E0144BD3F81E
:1082A0001034BB600123FB710EE0B868FFF7E7FAFA
:1082B00003461A46FB68934202D10023FB7106E095
:1082C000BB68DB681B68BB60BB68002BEDD1FB792A
:1082D000002B01D0FB6807E0FB680133FB60FB6803
:1082E000092BDBDD4FF0FF3318461037BD4680BD4C
:1082F0001C26002080B584B000AF78600B46FB7070
:10830000FFF7C6FFF860FB68B3F1FF3F01D1FB68E0
:1083100022E0FB68DBB219467868FFF7A0FA104B41
:10832000D3F81034002B08D10D4A7B68C2F8103402
:108330007B68DB6800221A600DE0094BD3F810342B
:10834000DA687B68DB6812681A60054BD3F8103472
:10835000DB687A681A60FB6818461037BD4680BD36
:108360001C26002080B582B000AF0D4BD3F810342E
:108370007B600B4B01221A7009E07868FFF78CFADA
:108380007868FFF752FA7B68DB681B687B607B6864
:10839000002BF2D100BF00BF0837BD4680BD00BF33
:1083A0001C26002080B483B000AF7860396000BF25
:1083B0000C37BD465DF8047B7047000090B585B072
:1083C00002AF786039607B68DB88002B0AD07B685D
:1083D000DB881A461F4B009313461F4A1F49386813
:1083E00002F046F87B681B7A052B2ED07B685B7AFF
:1083F000002B12D07B689B881A467B681B7A194633
:108400001046FFF7EBFA03461A46154B53F8223095
:108410001A461449386802F02BF87B681B68194625
:108420003868FFF7BFFF7B681B7A1A460E4B53F87C
:1084300022407B689B8800211846FFF7B1FA03466B
:1084400022460A49386802F013F800BF0C37BD46CF
:1084500090BD00BF04200300142003004C20030043
:108460003C23002064200300282300206820030010
:1084700080B584B000AFF860B9601346FB71FB684B
:108480001B7A052B0FD0FB685B7A002B06D00D4BB7
:108490001B681A460C49B86801F0EAFF0B49B86836
:1084A00001F0E6FF06E0FB79002B03D00749B8682E
:1084B00001F0DEFFB86801F0C2FF00BF1037BD4613
:1084C00080BD00BF3C230020642003007420030013
:1084D000B0B58AB004AFF860B9607A603B60BB6A3F
:1084E0001B7BFB75BB6A00221A73B96A3868FFF7F9
:1084F00065FF7B68062B7FD801A252F823F000BFEE
:108500001D85020027850200378502004B85020089
:108510006985020091850200C1850200F968B86A88
:1085200001F0A6FF69E0BB681B681A46F968B86AE3
:1085300001F09EFF61E0BB681A68BB6804331B68EA
:10854000F968B86A01F094FF57E0BB681A68BB6825
:1085500004331968BB6808331B6800930B46F9683D
:10856000B86A01F085FF48E0BB681968BB6804334E
:108570001868BB6808331B68BA680C32126801922D
:10858000009303460A46F968B86A01F071FF34E0C7
:10859000BB681868BB6804331C68BB6808331B6879
:1085A000BA680C321268B9681031096802910192F8
:1085B000009323460246F968B86A01F059FF1CE0AF
:1085C000BB681C68BB6804331D68BB6808331B6844
:1085D000BA680C321268B96810310968B86814308A
:1085E000006803900291019200932B462246F9689D
:1085F000B86A01F03DFF00E000BF0022B96A3868A8
:10860000FFF736FFBB6AFA7D1A7300BF1837BD4605
:10861000B0BD00BF80B586B000AFF860B9607A60C9
:108620003B60BB68082B5CD83B681B7BFB743B68DA
:1086300000221A7339687868FFF7C0FE00237B6157
:1086400014E07A69BB689A4209D2FA687B691344DC
:108650001B781A462549386801F00AFF03E02449CF
:10866000386801F005FF7B6901337B617B69072B6B
:10867000E7D92049386801F0FBFE00237B6124E044
:108680007A69BB689A4219D2FA687B6913441B78ED
:10869000BB74BB7C7E2B0AD8BB7C0133164A1344C7
:1086A0001B7803F09703002B01D0BB7C00E02E2346
:1086B0001A461249386801F0DBFE03E010493868B9
:1086C00001F0D6FE7B6901337B617B69072BD7D92B
:1086D000012239687868FFF7CBFE3B68FA7C1A7391
:1086E00000E000BF1837BD4680BD00BF7820030002
:1086F00080200300842003000C2D03008820030049
:108700008C20030080B485B000AF0346FB71FB7979
:108710005B08DBB21A460C4B9B5CFB73FB7903F0E6
:108720000103002B03D0FB7B1B09DBB203E0FB7BC7
:1087300003F00F03DBB2BB73BB7B18461437BD4697
:108740005DF8047B704700BF502A002080B485B0DC
:1087500000AF03460A46FB711346BB71FB7903F079
:108760000103002B01D00F2300E0F023FB73FB7902
:1087700003F00103002B03D0BB791B01DBB200E047
:10878000BB79BB73FB795B08DBB21A460F4B9A5C73
:10879000FB795B08DBB21946FB7B1340DAB20B4B6B
:1087A0005A54FB795B08DBB21A46084B9A5CFB799A
:1087B0005B08DBB21946BB7B1343DAB2034B5A5456
:1087C00000BF1437BD465DF8047B7047502A002077
:1087D00080B485B000AF0346FB710023FB600FE05F
:1087E0000E4B1A68FB68DB001344BB60BB681B7848
:1087F000FA799A4201D1BB6809E0FB680133FB605A
:10880000074B1B781A46FB689342E9DB00231846A6
:108810001437BD465DF8047B704700BF3C2A00203A
:10882000402A002080B584B000AF03460A46FB71A1
:108830001346BB71FB791846FFF7CAFFF860FB6867
:10884000002B09D0FB685B68002B05D0FB685B68D8
:10885000B979FA791046984700BF1037BD4680BDF8
:108860002DE9F04F89B000AF03460A46FB75134669
:10887000BB75FB7D1846FFF745FF0346042B00F24E
:10888000B58001A252F823F09D8802000D890200F4
:10889000258902004D8902005F890200BB7D002B03
:1088A00000F0A180FB7D01211846FFF74FFF002358
:1088B000FB7707F11F03184600F050FFF97D4FF0DA
:1088C00001024FF00003A1F12004C1F1200003FADE
:1088D00001F902FA04F449EA040922FA00F049EA2B
:1088E000000902FA01F8444BD3E9002348EA0201E7
:1088F000B96049EA0303FB603F4BD7E90212C3E9C1
:108900000012FB7F184600F034FF6CE0BB7D002BAB
:1089100001D0022200E00022FB7D11461846FFF73D
:1089200015FF63E0BB7D002B0AD0FB7D03211846B9
:10893000FFF70CFFFB7D01211846FFF773FF55E0A1
:10894000FB7D01211846FFF701FF4FE0BB7D002BA7
:108950004BD1FB7D04211846FFF7F8FE45E0BB7DB7
:10896000002B05D0FB7D03211846FFF7EFFE3DE00D
:10897000FB7D00211846FFF7E9FEFB7D002118462C
:10898000FFF750FF0023BB7707F11E03184600F0E6
:10899000E5FEF97D4FF001024FF00003A1F1200642
:1089A000C1F1200003FA01F502FA06F6354322FA76
:1089B00000F0054302FA01F46FEA040A6FEA050BBE
:1089C0000D4BD3E900230AEA020139600BEA0303E5
:1089D0007B60094BD7E90012C3E90012BB7F184640
:1089E00000F0C7FE02E000BF00E000BF00BF243778
:1089F000BD46BDE8F08F00BF482A002080B582B098
:108A000000AF0648064B1B685B080022194600F0C1
:108A1000A0FD786000BF0837BD4680BD6023002000
:108A2000442A002080B586B000AF786000237B61C7
:108A300024E01B4B1A687B69DB0013443B613B69F4
:108A40001B78184604F06CF90346FB733B695B78AE
:108A5000012B0CBF01230023DBB21A46FB7B9A4299
:108A60000CBF01230023BB733B691B78BA7B114603
:108A70001846FFF7F5FE7B6901337B61094B1B78D4
:108A80001A467B699342D4DB074BD3E90023134397
:108A900001D0FFF7B3FF00BF1837BD4680BD00BF50
:108AA0003C2A0020402A0020482A002080B584B0BB
:108AB00000AF78600B46FB707B68DBB21846FFF7AF
:108AC00087FEF860FB681B78184604F029F9034616
:108AD000FB72FB685B78012B0CBF01230023DBB228
:108AE0001A46FB7A9A420CBF01230023BB72BB7A61
:108AF000002B06D0054BD3E90023134301D1FFF728
:108B00007DFF00BF1037BD4680BD00BF482A002052
:108B100080B58AB000AFF8600B467A60FB727B6864
:108B2000092B01D807235BE003F0ECFF034683F039
:108B30000103DBB2002B09D003F08AFF78627B6A65
:108B40003B623B6A002B01D03B6A49E0264AFB6846
:108B50001360264AFB7A1370254A7B681360202233
:108B60000021244809F0AAF923494FF000024FF0F0
:108B70000003C1E9002328E0FB7ADB00FA68134414
:108B8000FB6103233B7500237B75BB7D6FF3000303
:108B9000BB75BB7D6FF34103BB75BB7D6FF3820378
:108BA000BB75FB699B787B75FB691B78184607F1E1
:108BB0001403124A194603F0B7FF78627B6ABB615F
:108BC000BB69002B01D0BB690AE0FB7A5A1EFA721E
:108BD000002BD1D10A4A00210A4800F091FC03463B
:108BE00018462837BD4680BD3C2A0020402A002078
:108BF000442A0020502A0020482A0020AD8A020082
:108C0000258A02009C20030080B582B000AF0023BB
:108C10007B600CE00B4B1A687B68DB0013441B780D
:108C20000121184603F0F0FF7B6801337B60064B9F
:108C30001B781A467B689342ECD30023184608370A
:108C4000BD4680BD3C2A0020402A002080B582B06D
:108C500000AF00237B600BE0154B1A687B68DB00DC
:108C600013441B78184604F032F87B6801337B60AC
:108C7000104B1B781A467B689342EDD30023FB70A0
:108C8000FB1C184600F06AFD0B494FF000024FF044
:108C90000003C1E90023FB78184600F06AFD074B8A
:108CA000184600F09EFC034618460837BD4680BDB6
:108CB0003C2A0020402A0020482A0020602300206F
:108CC00080B487B000AFF860B9607A600123FB75AB
:108CD000FB7D214AFB6813601F4ABB6853601E4A34
:108CE0007B689360FB6844F20102934212D0FB68F8
:108CF00044F20202934220D17B68174AD360164B9C
:108D0000DB681B68144A9361134BDB685B68124A8B
:108D1000D36112E07B68104A13610F4B1B699B689B
:108D20000D4A53610C4B1B691B680B4A93610A4B3C
:108D30001B695B68084AD36100BF72B600BF00BF01
:108D4000FB7DDBB2002BFBD162B600BF00BF1C373E
:108D5000BD465DF8047B7047702A002000B583B0E3
:108D600002900091019244F2010071466A4600F0BF
:108D700003F803B000BD00BFB0B58AB004AFF8601F
:108D8000B9607A6072B600BFFFF7ECFA00BFFFF778
:108D9000BDF80346002BFAD1FB6844F2020293426D
:108DA0002FD0FB6844F20202934269D8FB6844F278
:108DB0000102934237D0FB6844F2010293425FD82C
:108DC000FB68012B05D0FB6841F2010293420CD0F5
:108DD00056E03A4A3A4BD31ADB081B0443F001032E
:108DE00038491846FFF72CF857E0344A344BD31A69
:108DF000DB081B0443F0010333491846FFF720F852
:108E00004BE07B687B612D4A2D4BD31ADB081B049A
:108E100043F001007B695B681A467B691B682B493C
:108E2000FFF730F839E07B683B61244A244BD31AC2
:108E3000DB081B0443F001043B699D683B699B68A8
:108E4000184602F043F9034618463B695B68194629
:108E50003B691B68BA6802920193009103462A4657
:108E60001B492046FFF724F8144A154BD31ADB0898
:108E70001B0443F0010317491846FEF7E1FF0CE01D
:108E80000E4A0F4BD31ADB081B0443F00103BA68E8
:108E900011491846FEF7E3FF00BF104B1B6803F0B3
:108EA0000103002B00D000BE7A68B968F868FFF7AC
:108EB00007FF00BF1837BD46B0BD00BFA42E03009A
:108EC0007C2E0300A0200300C0200300E420030048
:108ED00000210300282103003C210300F0ED00E005
:108EE0002DE9B04382B000AF144800F0BBFF034649
:108EF00018464FF00001124BD3E9002310EB020893
:108F000041EB0309C7E900890E4BD3E90023D7E9F8
:108F10000001994208BF904207D2D7E9002312F11D
:108F2000807443F10005C7E90045D7E900231046E6
:108F300019460837BD46BDE8B08300BF8023002036
:108F4000982A0020A02A002080B489B000AF786061
:108F500039607B68FB613B68BB61FB69D3E9022335
:108F6000C7E90423BB69D3E90223C7E90223D7E990
:108F70000423D7E90201994208BF90422CBF012384
:108F80000023DBB218462437BD465DF8047B7047EA
:108F9000B0B584B000AF78600023FB733B4B1B7807
:108FA000002B6DD07B68002B6AD0FFF799FF7B68A0
:108FB000D3E90223994208BF904251D300237B7327
:108FC00007F10D03184600F0C9FB7B681B69002BF5
:108FD00006D179684FF0FF324FF0FF33C1E9022329
:108FE0007B7B184600F0C5FB7B685B697A689269F9
:108FF0001046984700233B7307F10C03184600F016
:10900000ADFB7B681B69002B19D07B68D3E9022379
:10901000B3F1FF3F08BFB2F1FF3F10D07B68D3E947
:1090200002017B681B691A464FF00003841841EB6C
:1090300003057B68C3E902450123BB7301E00023FC
:10904000BB733B7B184600F094FBBB7B002B17D017
:109050007B6819460E4801F0C2FF0123FB730FE045
:109060007B68D3E90223B3F1FF3F08BFB2F1FF3FB2
:1090700006D07B681946064801F0B1FF0123FB7357
:10908000FB7B18461037BD46B0BD00BF942A0020B8
:1090900064210300B0B58AB000AF786039600D2359
:1090A0007B623B6800221A707B68D3E90223C7E920
:1090B0000623FFF715FFD7E90623141A63EB010512
:1090C000C7E90445D7E90423012A73F1000318DB3B
:1090D0003B69B3F5350F05D300F0BAFA0246124BDF
:1090E000134400E0BB69FB604FF49603FA6800216B
:1090F0000E4800F0C5FD78627B6A002B05D1012384
:109100000EE00021094800F087FE7B6A0D2B06D196
:109110007868FFF73DFF03461A463B681A70002344
:1091200018462837BD46B0BDFFFFB400802300209D
:1091300080B582B000AF044801F07BFF78607B68A7
:1091400018460837BD4680BD6421030080B582B053
:1091500000AF044801F088FF78607B681846083744
:10916000BD4680BD6421030080B582B000AFFFF72B
:10917000DFFF78607B68002B06D079684FF0FF3204
:109180004FF0FF33C1E902237B68002BEFD100BF12
:1091900000BF0837BD4680BD80B400AF074BD3E9A0
:1091A000002312F1807043F10001044BC3E9000178
:1091B00000BFBD465DF8047B704700BF982A0020C1
:1091C00080B582B000AF7860074B1B68002B07D0DA
:1091D000054B1B681846FFF7DBFE034B00221A60A5
:1091E00000BF0837BD4680BD902A002080B582B000
:1091F00000AF7860FFF774FE02460B460349C1E9F1
:10920000002300BF0837BD4680BD00BFA02A002054
:1092100080B586B000AF7860FFF798FF3861002313
:10922000FB753B69002B54D03B69D3E90223B3F1B2
:10923000FF3F08BFB2F1FF3F02D1FFF779FF50E0D7
:109240002C4B1B68002B02D10123FB751CE03B69F2
:10925000D3E90201274B1B68D3E90223994208BFD7
:10926000904211D20123FB75224B1B68D3E90223E4
:10927000B3F1FF3F08BFB2F1FF3F05D01D4B1B68A4
:1092800019461D4801F0ABFEFB7D002B2AD0FFF7ED
:109290004FFF386107F10F0319463869FFF7FAFEEF
:1092A0000346002B11D0134B1B68002B02D17868AA
:1092B00000F02AFC0F4A3B691360FB7B83F001033B
:1092C000DBB2002BA8D000BF0FE00A4B00221A60CF
:1092D000A2E7084B1B68002B06D1786800F022FC3F
:1092E00002E099E700BF00E000BF00BF1837BD46AD
:1092F00080BD00BF902A00206421030080B586B0A5
:1093000000AF78602B4A07F10C031946104600F0B5
:10931000B9FE386146E03B691B78022B2AD0022B4C
:109320002EDC002B02D0012B11D029E03B695B68B9
:10933000D3E90223B3F1FF3F08BFB2F1FF3F21D0D1
:109340003B695B6819461C4801F049FE1AE03B691D
:109350005A681A4B1B689A4203D1184B00221A60B4
:1093600011E03B695B681946134801F08AFE034629
:10937000FB7508E0FFF7F8FE114B01221A7002E0BE
:1093800000BF00E000BF0B4A07F10C03194610466E
:1093900000F092FE074A07F10C031946104600F050
:1093A00071FE38613B69002BB5D100BF00BF183793
:1093B000BD4680BD002B002064210300902A0020C0
:1093C000942A002080B582B000AF7860786800F001
:1093D00015FD0346002B01D0FFF7DEFE0021786863
:1093E00000F02CFD0346002B02D07868FFF7E8FE62
:1093F0000121786800F022FD0346002B02D0786836
:10940000FFF7F4FE7868FFF779FF7868FFF700FF51
:1094100000BF0837BD4680BD80B500AF024800F0F0
:109420002FFD00BF80BD00BF8023002080B584B029
:1094300000AF03463960FB71114A07F10803194672
:10944000104600F0F0FDF860FB68002B13D0FB68BD
:10945000FA791A70FB683A685A60094A07F10803FA
:109460001946104600F0F9FD0346002B01D0FFF726
:10947000D3FF002300E0042318461037BD4680BD0B
:10948000002B002080B582B000AF164B1B683B60FC
:10949000154808235822154900F093FD78607B6831
:1094A000002B01D07B6819E03B46114A1946114850
:1094B00000F0C2FA78607B68002B01D07B680DE079
:1094C00001210C4800F08AFC01230B4A01210948C4
:1094D00000F036FB094B01221A707B6818460837EA
:1094E000BD4680BD60210300002B0020A82A00207B
:1094F000C593020080230020FFFF7F00942A0020F4
:1095000080B487B000AFF8600B467A60FB727B686E
:10951000002B01D1072316E0FB681B687B6179698A
:109520004FF0FF324FF0FF33C1E902237B697A68C5
:109530005A61FB7A012B0CBF01230023DBB21A46D0
:109540007B691A61002318461C37BD465DF8047B11
:109550007047B0B588B000AFF860B9607A60FB685A
:10956000BB610023FB7507F11703184600F0F6F8FE
:10957000BB69D3E90223B3F1FF3F08BFB2F1FF3F5C
:109580000ED1FFF7ADFCBB681A464FF000038418FC
:1095900041EB0305BB69C3E902450123FB7701E009
:1095A0000023FB77FB7D184600F0E3F8FB7F83F098
:1095B0000103DBB2002B01D000230EE0BB697A6807
:1095C0009A61BB691B69002B02D0BB69BA681A613A
:1095D000B9690020FFF72AFF034618462037BD4629
:1095E000B0BD80B586B000AF78607B683B6100237A
:1095F000FB7307F10F03184600F0B0F83B69D3E99D
:109600000223B3F1FF3F08BFB2F1FF3F02D10023B5
:10961000FB7508E039694FF0FF324FF0FF33C1E9C5
:1096200002230123FB75FB7B184600F0A2F8FB7DAB
:1096300083F00103DBB2002B01D0002304E0396981
:109640000120FFF7F3FE034618461837BD4680BDDC
:1096500080B500AF024800F005FC0346184680BD07
:109660008023002080B483B000AFEFF310833B6011
:109670003B687B6072B600BF7B6818460C37BD46FE
:109680005DF8047B704780B400AF62B600BF00BFD6
:10969000BD465DF8047B704780B584B000AF78604C
:1096A000FFF7E0FFF860164B9B68002B1BD1144BB3
:1096B00001229A60134BD3F88020134B1340104AB9
:1096C0001360104B104AC3F880200E4BD3F884303F
:1096D0000B4A53600B4B4FF0FF32C3F884207B687A
:1096E00000221A7002E07B6801221A70FB68002BCE
:1096F00001D1FFF7C8FF002318461037BD4680BDD3
:10970000802F002000E100E0FC06FFBD80B584B0A2
:1097100000AF0346FB710F4B9B68002B15D0FB7904
:10972000002B12D1FFF79EFFF8600B4A094B1B6814
:109730001360094A074B5B685360064B00229A602E
:10974000FB68002B01D1FFF79EFF0023184610375E
:10975000BD4680BD802F002000E100E080B582B0D2
:1097600000AF78607868FFF797FF00BF0837BD4605
:1097700080BD80B582B000AF0346FB71FB7918460F
:10978000FFF7C4FF00BF0837BD4680BD80B483B07B
:1097900000AF0346FB7197F90730002B0BDBFB7919
:1097A00003F01F02074997F907305B09012000FA0F
:1097B00002F241F8232000BF0C37BD465DF8047B60
:1097C000704700BF00E100E080B483B000AF034603
:1097D000FB7197F90730002B0CDBFB7903F01F02BC
:1097E000074997F907305B09012000FA02F240337C
:1097F00041F8232000BF0C37BD465DF8047B70475D
:1098000000E100E080B483B000AF03463960FB7133
:1098100097F90730002B0ADB3B68DAB20C4997F95D
:1098200007305201D2B20B4483F800230AE03B68B0
:10983000DAB20849FB7903F00F03043B5201D2B2BC
:109840000B441A7600BF0C37BD465DF8047B7047A9
:1098500000E100E000ED00E080B582B000AF03461B
:109860000A46FB711346BB71BA7997F90730114666
:109870001846FFF7C7FF00BF0837BD4680BD80B55B
:1098800082B000AF0346FB7197F907301846FFF727
:109890007DFF00BF0837BD4680BD000080B584B0A5
:1098A00000AF78607B68002B0AD0074B43F00103C0
:1098B000FB607B689B01BB60FB68B868984700E071
:1098C00000BF1037BD4680BDC021030080B485B005
:1098D00000AFF860B9607A60FB68BA6802F5A872F8
:1098E000796843F8221000BF1437BD465DF8047B49
:1098F000704780B483B000AF786039607B683A68A5
:1099000002F5A87253F8223018460C37BD465DF8B0
:10991000047B704780B483B000AF786039607B68A7
:109920003A68C3F8042300BF0C37BD465DF8047BDA
:10993000704780B483B000AF786039607B683A6864
:10994000C3F8082300BF0C37BD465DF8047B7047A1
:1099500080B483B000AF78600B467B807B887A68E8
:1099600013441B6818460C37BD465DF8047B7047EE
:1099700080B485B000AF78600B467B807B887A68C6
:10998000134400221A607B887A6813441B68FB60CA
:10999000FB6800BF1437BD465DF8047B704780B498
:1099A00083B000AF78607B68D3F8043518460C3775
:1099B000BD465DF8047B704780B483B000AF78602B
:1099C00039607B683A68C3F8082500BF0C37BD468C
:1099D0005DF8047B704780B483B000AF78600B46BD
:1099E000FB70FA787B6813441A460123136000BFAA
:1099F0000C37BD465DF8047B704780B483B000AF80
:109A0000786039607B683A68C3F8442300BF0C373C
:109A1000BD465DF8047B704780B483B000AF7860CA
:109A200039607B683A68C3F8482300BF0C37BD46ED
:109A30005DF8047B7047000080B586B000AFF86029
:109A4000B9607A60FB685B791946294A7B6842F8FD
:109A50002130FB685B79274ADB0013441B79002B1C
:109A60000ED008237B61244A244BD31ADB081B0445
:109A700043F0020322491846FEF7E2F97B6932E01F
:109A8000FB681A68BB681B8819461046FFF794FFED
:109A9000FB6893F90420BB689B7819461046FFF7D2
:109AA000DBFEFB6893F904301846FFF7E8FEFB681D
:109AB0005B79104ADB00134401221A71FB685B7961
:109AC00019460C4AFB6842F8313000237B610A4A90
:109AD0000A4BD31ADB081B0443F003030949184659
:109AE000FEF7AEF97B6918461837BD4680BD00BF4A
:109AF000142B0020182B0020B42E03007C2E030012
:109B0000702103009421030080B582B000AF78601B
:109B10007B681B6800211846FFF75DFF00BF083710
:109B2000BD4680BD80B582B000AF78607B681B68A1
:109B300004211846FFF74FFF00BF0837BD4680BD20
:109B400080B586B000AFF860B9607A60FB704FF402
:109B50008032BB6802FA03F37B61BB6850339BB26F
:109B60009B007B827B6823F07F437B60FB681B68E4
:109B700079691846FFF7DDFEFB681B6879691846AE
:109B8000FFF74AFFFB681B687A8A11461846FFF701
:109B9000EFFEFB681B687A68B9681846FFF796FE07
:109BA000FB681B6879691846FFF727FFFB78002BD5
:109BB00005D0FB681B6879691846FFF7ABFE00BF4C
:109BC0001837BD4680BD80B584B000AFF860B9607D
:109BD0001346FB71FB681B68B9681846FFF70DFF59
:109BE000FB79002B05D0FB681B68B9681846FFF7A6
:109BF00091FE00BF1037BD4680BD80B582B000AF7A
:109C0000786039607B681B6839681846FFF704FF85
:109C10007B681B6839681846FFF78BFE00BF083762
:109C2000BD4680BD80B582B000AF78600B467B80BA
:109C30007B681B687A8811461846FFF789FE034641
:109C4000002B08D07B681B687A8811461846FFF7FE
:109C50008FFE012300E0002318460837BD4680BD73
:109C600080B483B000AF786039607A683B68D31AFB
:109C700023F07F4318460C37BD465DF8047B7047E0
:109C800080B58AB000AFF860B9607A603B604FF48D
:109C90008032BB6802FA03F37B62BB6850339BB22D
:109CA0009B007B847B6823F07F437B60796AF86844
:109CB000FFF7A3FFFB681B681846FFF770FEF8610B
:109CC000FB681B68B9681846FFF713FEB861FB68AC
:109CD0001B68FA69B9681846FFF7F8FDFB681B684E
:109CE0007A8C11461846FFF743FEF969B869FFF709
:109CF000B7FF0346012B09D11020FFF7CFFDFB680A
:109D00001B687A8C11461846FFF732FEFB681B6809
:109D10001846FFF744FEF861F9697868FFF7A0FF7D
:109D20007861FB681B68796A1846FFF766FE7B69F5
:109D3000012B15D1FB6818687B6801331A46B96896
:109D4000FFF7C4FD1020FFF7A9FDFB681B6818464C
:109D5000FFF725FE0246FB69934235D00D2339E01B
:109D6000FB681B687A68B9681846FFF7AFFDFB68A7
:109D70001B681846FFF713FEF8617B68013BF96921
:109D80001846FFF76DFF78613B68C3F1FF1303F5D9
:109D90007F437A699A4201D90D231BE07B69002B2E
:109DA00012D1FB6818687B6801331A46B968FFF75F
:109DB0008DFDFB681B681846FFF7F1FD0246FB6945
:109DC000934201D00D2305E00122796AF868FFF77C
:109DD000FAFE002318462837BD4680BD80B582B004
:109DE00000AF78600B46FB70FB781A46022178685A
:109DF000FFF7E9FE00BF0837BD4680BD80B582B0E1
:109E000000AF78604FF482717868FFF70BFF03466C
:109E100018460837BD4680BD80B582B000AF786077
:109E200039604FF480323B6802FA03F319467868D0
:109E3000FFF7E3FE00BF0837BD4680BD80B584B0A4
:109E400000AF786039603B6850339BB29B00FB8168
:109E5000FB8919467868FFF7E5FE03461846103778
:109E6000BD4680BD80B582B000AF78607B681B685E
:109E70001846FFF794FD034618460837BD4680BDD7
:109E800080B582B000AF78607B6893F904301846E3
:109E9000FFF79AFC00BF0837BD4680BD80B500AF14
:109EA000034B1B68034A12681046984700BF80BDE9
:109EB000142B0020182B002080B487B000AF7860EE
:109EC00039607B6853E8011F8AB2D88902449889B7
:109ED000824228BF121A1889824202BFBFF32F8F15
:109EE000002307E0C2EA010243E801200028E9D18B
:109EF0004FF00103FB737861B9603A61BA683B685F
:109F00001A60FB7BDBB218461C37BD465DF8047B4C
:109F1000704780B485B000AF7860796851E8013F40
:109F2000C3EA034341E80132002AF7D1FA60BB607B
:109F300000BF1437BD465DF8047B704780B487B01E
:109F400000AF786039607B6853E8021F1FFAA1F206
:109F5000D888824202BFBFF32F8F00230DE0D8893B
:109F600002449889824228BF121AC1EA024243E899
:109F700002200028E8D14FF00103FB737861B9603B
:109F80003A61BA683B681A60FB7BDBB218461C3743
:109F9000BD465DF8047B704780B485B000AF786043
:109FA000796851E8023FC3EA234341E80232002ABC
:109FB000F7D1FA60BB6000BF1437BD465DF8047B83
:109FC000704780B485B000AFF860B96011461A469A
:109FD0000B46FB801346BB80BB68002B01D10E23D0
:109FE0001BE0FB88BA88B3FBF2F102FB01F29B1A7B
:109FF0009BB2002B01D009230FE0FB68BA681A60FE
:10A00000FB6800225A60FB6800229A60FB68FA88AD
:10A010009A81FB68BA88DA81002318461437BD4656
:10A020005DF8047B704780B584B000AF786039601C
:10A030003B6819467868FFF73FFF0346002B07D0BF
:10A040007B681B683A6812881344FB60FB6800E079
:10A05000002318461037BD4680BD80B582B000AFE2
:10A06000786039603B681A883B685B889A4204D103
:10A070007868FFF74EFF012300E0002318460837F9
:10A08000BD4680BD80B584B000AF786039603B6864
:10A0900019467868FFF752FF0346002B07D07B680C
:10A0A0001B683A6852881344FB60FB6800E0002399
:10A0B00018461037BD4680BD80B582B000AF7860CD
:10A0C00039603B681A883B685B889A4204D178689B
:10A0D000FFF762FF012300E0002318460837BD4662
:10A0E00080BD80B584B000AF786039603B685B09A3
:10A0F0009B007A681A443B6803F01F03012101FAB0
:10A1000003F31946104600F054F8F86000BF10370A
:10A11000BD4680BD80B584B000AF786039603B68D3
:10A120005B099B007A681A443B6803F01F03012116
:10A1300001FA03F3DB431946104600F06CF8F860AF
:10A1400000BF1037BD4680BD80B483B000AF7860DB
:10A1500039603B685B099B007A6813441A683B6866
:10A1600003F01F0322FA03F303F00103002B14BFD3
:10A1700001230023DBB218460C37BD465DF8047B93
:10A18000704790B486B000AF786039607B683A68F9
:10A1900053E8004F104643E8000191F0000FF7D15B
:10A1A0007C613861F9607B6918461837BD4690BC00
:10A1B000704790B486B000AF786039607B683A68C9
:10A1C00053E8004F44EA020043E8000191F0000F19
:10A1D000F6D17C613861F9603B6918461837BD4695
:10A1E00090BC704790B486B000AF786039607B68EF
:10A1F0003A6853E8004F04EA020043E8000191F096
:10A20000000FF6D17C613861F9607B691846183718
:10A21000BD4690BC704790B486B000AF786039609E
:10A220007B683A6853E8004F04EA020043E8000103
:10A2300091F0000FF6D17C613861F9603B691846F6
:10A240001837BD4690BC704790B486B000AF7860B8
:10A2500039607B683A6853E8004F04EB020043E83A
:10A26000000191F0000FF6D17C613861F9603B6923
:10A2700018461837BD4690BC704790B486B000AF02
:10A28000786039607B683A6853E8004FA4EB0200BD
:10A2900043E8000191F0000FF6D17C613861F9606C
:10A2A0003B6918461837BD4690BC704780B582B0F0
:10A2B00000AF786001217868FFF77BFF03461846FE
:10A2C0000837BD4680BD80B582B000AF7860002100
:10A2D0007868FFF787FF034618460837BD4680BDFC
:10A2E00080B483B000AF78600B46FB707B68DA689F
:10A2F000FB787968098A01FB03F3134418460C378D
:10A30000BD465DF8047B704780B483B000AF7860D1
:10A3100039603B687A68D2689B1A7A68128AB3FB04
:10A32000F2F3DBB218460C37BD465DF8047B70478C
:10A3300080B485B000AF78607B68002B01D10E231C
:10A340001CE07B689A687B685B68D31AFB737B6848
:10A350001B687A6852681A6006E07B681A6813689E
:10A36000591C1160FA7B1A70FB7B5A1EFA73002B82
:10A37000F3D17B681B6800221A710023184614373A
:10A38000BD465DF8047B704780B584B000AF78604F
:10A390000023FB600023BB7207F10A031846FFF796
:10A3A000DDF97B681B681A687B685B689A421CD978
:10A3B0007B681B681A68013A1A601B681B7819468B
:10A3C0007868FFF78DFFF8607B689A687B681B6888
:10A3D0001B68D31AFB727B681B681B79FA7A9A4256
:10A3E00003D97B681B68FA7A1A71BB7A1846FFF7A3
:10A3F000C0F9FB6818461037BD4680BD90B585B0E2
:10A4000000AF786039603B68FB600023FB7207F1A6
:10A410000B031846FFF7A2F97B681B681C68621CD7
:10A420001A60F9687868FFF76FFF03462370FB7ABC
:10A430001846FFF79EF900BF1437BD4690BD80B5A2
:10A4400082B000AF78607B689B68002B0CD07B6883
:10A450005B697A6810697A6811687A6892689847C7
:10A460007B6800229A6000E000BF0837BD4680BDCF
:10A470000EB480B585B000AF7860FB69002B0CD0BE
:10A480000023FB6007F12003FB6007F10C031A4671
:10A49000F969786800F0AEF900E000BF1437BD46F6
:10A4A000BDE8804003B0704780B582B000AF7860EF
:10A4B0000B46FB70FB780A2B03D10D217868FFF760
:10A4C000F3FF7B681A687B689B68581C7968886012
:10A4D0001344FA781A707B689A687B685B689A42C2
:10A4E00002D37868FFF7ABFF00BF0837BD4680BDD9
:10A4F00080B586B000AFF860B9607A603B60002339
:10A500007B613B6803F00103002B21D00AE0BB68AC
:10A510000133BB607B6901337B61FB7C1946F868C2
:10A52000FFF7C2FFBB681B78FB74FB7C002BEED1EE
:10A5300006E07B68013B7B602021F868FFF7B4FFF1
:10A540007A687B699A422BD97B68002BF1D127E08E
:10A55000BB68002B0BD0B86807F0C0FC786106E040
:10A560007B68013B7B602021F868FFF79DFF7A68DC
:10A570007B699A420ED97B68002BF1D10AE0BB6857
:10A580000133BB607B6901337B61FB7C1946F86852
:10A59000FFF78AFFBB681B78FB74FB7C002BEED1B6
:10A5A00000BF1837BD4680BD80B588B000AFF860E9
:10A5B000B9607A603B60BB68FB610123BB6107E067
:10A5C000FA697B68B2FBF3F3FB61BB690133BB61E2
:10A5D000FA697B689A42F3D23A68BB699A4201D918
:10A5E0003B68BB61FB6A03F00103002B1FD1BB6A10
:10A5F000002B1CD0FB6A03F00203002B05D03B6844
:10A60000002B02D13023FB7501E02023FB7507E00E
:10A61000BB6A013BBB62FB7D1946F868FFF744FF4C
:10A62000BB6A002B03D0BA69BB6A9A42F0D30123FC
:10A63000FB613B68012B03D93B68013B3B6009E0B0
:10A64000BA68FB69B2FBF3F33B613A697B689A42F3
:10A6500000D205E0FB697A6802FB03F3FB61E8E7DF
:10A66000BA68FB69B2FBF3F33B613B69FA6902FB31
:10A6700003F3BA68D31ABB60154A3B6913441B78CD
:10A680001946F868FFF710FFFA697B68B2FBF3F32D
:10A69000FB61FB69002BE3D1FB6A03F00103002B94
:10A6A00011D0BB6A002B0ED006E0BB6A013BBB6237
:10A6B0002021F868FFF7F8FEBB6A002B03D0BA69C7
:10A6C000BB6A9A42F1D300BF2037BD4680BD00BFB0
:10A6D000C821030080B588B002AFF860B9607A6025
:10A6E0003B60BB68002BB8BF5B423B6101237B61D1
:10A6F00007E07B683A6992FBF3F33B617B690133C6
:10A700007B617B683A699A42F3DA3A687B699A42DC
:10A7100001D93B687B613B6A002B0AD0BB68002BE8
:10A7200004DB7B6A03F00403002B02D03B6A013B8D
:10A730003B627B6A03F00203002B02D03B68002BD4
:10A7400016D07B6A03F00103002B11D13B6A002B6A
:10A750000ED006E03B6A013B3B622021F868FFF720
:10A76000A3FE3B6A002B03D07A693B6A9A42F1D37D
:10A77000BB68002B07DABB685B42BB602D21F86821
:10A78000FFF792FE08E07B6A03F00403002B03D07E
:10A790002B21F868FFF788FE7B6A03F00203002B89
:10A7A00019D07B6A03F00103002B14D13B68002B06
:10A7B00011D13B6A002B0ED006E03B6A013B3B62A5
:10A7C0003021F868FFF770FE3B6A002B03D07A69EE
:10A7D0003B6A9A42F1D3B9687B6A01933B6A009362
:10A7E0003B687A68F868FFF7DFFE00BF1837BD46A0
:10A7F00080BD000080B58EB002AFF860B9607A60AD
:10A80000BB68002B00F08E81BB681B7887F82F3067
:10A81000BB680133BB6097F82F30002B00F07981C3
:10A8200097F82F30252B40F0688100233B620123ED
:10A83000BB62BB681B7887F82F3097F82F30302B1E
:10A840000DD0302B1BDC2B2B11D02D2B17D13B6ABD
:10A8500043F001033B62BB680133BB6012E03B6A1B
:10A8600043F002033B62BB680133BB600AE03B6A12
:10A8700043F004033B62BB680133BB6002E000238A
:10A88000BB6200BFBB6A002BD3D10023FB6197F8EA
:10A890002F302A2B0CD17B681B68191D7A68116038
:10A8A0001B68FA691344FB61BB680133BB601AE0A3
:10A8B000BB681B7887F82F3097F82F302F2B12D9D1
:10A8C00097F82F30392B0ED8BB680133BB60FA697B
:10A8D00013469B0013445B001A4697F82F3013442D
:10A8E000303BFB61D3E700237B62BB681B7887F8B2
:10A8F0002F3097F82F302E2B1DD1BB680133BB6052
:10A90000BB681B7887F82F3097F82F302F2B12D980
:10A9100097F82F30392B0ED8BB680133BB607A6AA9
:10A9200013469B0013445B001A4697F82F301344DC
:10A93000303B7B62E4E7BB681B7887F82F3097F8E1
:10A940002F306C2B03D097F82F30682B07D1BB68C2
:10A950000133BB60BB681B7887F82F30EFE797F8AF
:10A960002F30252B00F0BF80252BC0F2C180782B23
:10A9700000F3BE80582BC0F2BB80583B202B00F266
:10A98000B78001A252F823F073AA0200F1AA0200D4
:10A99000F1AA0200F1AA0200F1AA0200F1AA020043
:10A9A000F1AA0200F1AA0200F1AA0200F1AA020033
:10A9B000F1AA02000DAA02002BAA0200F1AA0200CD
:10A9C000F1AA0200F1AA0200F1AA02002BAA0200D9
:10A9D000F1AA0200F1AA0200F1AA0200F1AA020003
:10A9E000F1AA0200F1AA0200B3AA0200F1AA020031
:10A9F000F1AA020097AA0200F1AA02004FAA0200DF
:10AA0000F1AA0200F1AA020073AA02007B681B6887
:10AA1000191D7A6811601B68BB62BB6AFB75FB7D00
:10AA20001946F868FFF740FD63E07B681B68191D55
:10AA30007A6811601B68BB623B6A0193FB690093F3
:10AA40007B6A0A22B96AF868FFF744FE51E07B6826
:10AA50001B68191D7A6811601B68BB62B96A3B6A82
:10AA60000193FB6900937B6A0A22F868FFF79CFD5B
:10AA70003FE07B681B68191D7A6811601B68BB6228
:10AA8000B96A3B6A0193FB6900937B6A1022F868FC
:10AA9000FFF78AFD2DE07B681B68191D7A6811603D
:10AAA0001B68BB613B6AFA69B969F868FFF720FD6A
:10AAB0001FE07B681B68191D7A6811601B68BB6208
:10AAC0003021F868FFF7F0FC7821F868FFF7ECFC1C
:10AAD000B96A002301930823009308231022F86821
:10AAE000FFF762FD05E02521F868FFF7DDFC00E0D7
:10AAF00000BFBB680133BB6005E097F82F301946F3
:10AB0000F868FFF7D1FCBB681B78002B7FF47CAEA4
:10AB100000E000BFFB681B7B002B04D0F868FFF748
:10AB20008EFC00E000BF3037BD4680BD80B582B0EE
:10AB300000AF78607868FFF7FBFB034618460837DC
:10AB4000BD4680BD80B58AB000AF786039607B6853
:10AB50001B8A043BFB613A68FB691344DA1CFB69FE
:10AB6000B2FBF3F3FB767868FFF70EFC78617B6944
:10AB7000002B01D1002337E07B6900221A717B6929
:10AB800001225A71FB699AB27B69DA807B697B6228
:10AB9000FB7E013B3B617B6A7A681A6000233B6263
:10ABA0001DE07868FFF7F0FBF860FB68002B0ED023
:10ABB0007B695B790133DAB27B695A717B6AFA6827
:10ABC0001A60FB687A681A60FB687B6204E0786947
:10ABD00000F00EF8002307E03B6A01333B623A6A5B
:10ABE0003B699A42DDD37B6918462837BD4680BD54
:10ABF00080B58AB000AF78607B68FB61FB695B79E8
:10AC0000FB767B683B62FB7E013B7B6100237B62C2
:10AC100005E03B6A1B683B627B6A01337B627A6AB0
:10AC20007B699A42F5D33B6A1B683B617B683B6258
:10AC300000237B620BE03B6A1B68FB60396A386962
:10AC4000FFF7DCFBFB683B627B6A01337B62FB7EC8
:10AC50007A6A9A42EFD300BF00BF2837BD4680BD55
:10AC600080B584B000AF78607B68FB60FB6804331C
:10AC700001211846FFF7E8FA00BF1037BD4680BD36
:10AC800080B586B000AF78607B687B617B690433F8
:10AC900001211846FFF7F1FA0346FB6007F10C03A8
:10ACA0003B613B691B78002B02D17868FFF7A0FF5E
:10ACB00000BF1837BD4680BD80B590B000AFF860CA
:10ACC000B9607A603B60FB687B62FB68FB637B6A10
:10ACD000DB881A467B6A5B7903FB02F3043B3B6229
:10ACE0007B6ADB88FB613B681A1DFB69B2FBF3F3EF
:10ACF000BB633B680433FA69B3FBF2F2F96901FB09
:10AD000002F29B1A7B637B681A683B6813443A6AB9
:10AD10009A4203D23A6A3B68D31A01E07B681B6807
:10AD20003B637B683A6B1A6005E0FB6B1B68FB6357
:10AD3000BB6B013BBB63BB6B002BF6D10023FB62FB
:10AD4000FA697B6BD31ABB62BA6A3B6B934228BF2A
:10AD50001346BB622AE0BA68FB6A1344BB61FA6B14
:10AD60007B6B134404337B6197F84830002B05D08C
:10AD7000BA6A7969B86907F093F804E0BA6AB96900
:10AD8000786907F08DF800237B63FB6B1B68FB631E
:10AD90003A6BBB6AD31A3B63FA6ABB6A1344FB6221
:10ADA000FA693B6B934228BF1346BB623B6B002B97
:10ADB000D1D100BF00BF4037BD4680BD80B588B04F
:10ADC00002AFF860B9607A603B607B687B6107F135
:10ADD0001402002300933B68B968F868FFF76CFF22
:10ADE00000BF1837BD4680BD80B588B002AFF8609F
:10ADF000B9607A603B607B687B6107F114020123D4
:10AE000000933B68B968F868FFF756FF00BF183732
:10AE1000BD4680BD80B483B000AF0346FB7197F997
:10AE20000730002B0CDBFB7903F01F02074997F971
:10AE300007305B09012000FA02F2603341F8232059
:10AE400000BF0C37BD465DF8047B704700E100E0B1
:10AE500080B483B000AF78607B6800221A60BFF3D3
:10AE60005F8F00BF00BF0C37BD465DF8047B7047A5
:10AE700041DF704700BF184680B584B000AF0023A3
:10AE8000FB70FB1C1846FEF769FCF1EE103A7B6084
:10AE90007B68FB60FB6823F09F03BB60BB68E1EE4F
:10AEA000103A00BFBFF35F8F00BF2620FFF7B2FF4D
:10AEB000FB781846FEF75DFC00BF1037BD4680BD2D
:10AEC00080B500AF064B00221A700648FFF7C0FF9E
:10AED0000549064800F043F80023184680BD00BF2E
:10AEE000242B0020202B0020E4210300282B00200D
:10AEF00080B582B000AFFFF7BFFF06F02DFD03461F
:10AF0000002B03D0FFF7B4FF786002E020BF40BF02
:10AF100020BF00BF0837BD4680BD80B483B000AFFE
:10AF200078607B689B6800229A607B689B6800223F
:10AF30001A617B689B6800225A617B689B680022CB
:10AF4000DA607B689B6800225A607B689B680022FD
:10AF50001A6000BF0C37BD465DF8047B704780B4B3
:10AF600083B000AF786039607B683A681A607B68AC
:10AF70001B681A687B685A607B685A687B681B6824
:10AF80005B689A4202D17B6800225A6000BF0C378E
:10AF9000BD465DF8047B704780B483B000AF786035
:10AFA0007B685B68002B14D07B685B681A467B6803
:10AFB0001B689B6813441A467B685A607B685A6812
:10AFC0007B681B685B689A4204D17B6800225A60E8
:10AFD00000E000BF0C37BD465DF8047B704780B5CC
:10AFE00084B000AF786039607B685B68FB600FE01D
:10AFF0007B689B68FA681268396810469847034670
:10B0000083F00103DBB2002B07D1FB681B68FB60F8
:10B01000FB681B68002BEBD100E000BFFB681A68DF
:10B020003B681A60FB683A681A6000BF1037BD467B
:10B0300080BD80B485B000AF78607B685B681B68BA
:10B04000FB607B685B681B68002B06D07B685B68D5
:10B050001A687B685B6812681A60FB6818461437C8
:10B06000BD465DF8047B704780B483B000AF786064
:10B070007B685B681B6818460C37BD465DF8047B2F
:10B08000704780B485B000AF786039600023FB72F0
:10B090007B685B68FB600EE0FB681B683A689A425D
:10B0A00006D13B681A68FB681A600123FB7206E050
:10B0B000FB681B68FB60FB681B68002BECD1FB7A0C
:10B0C00018461437BD465DF8047B704780B584B0E0
:10B0D00000AF7860786800F00DF8F860FB68002B2E
:10B0E00001D0FB6800E0024B18461037BD4680BD1A
:10B0F000FC21030080B487B000AF7860174B7B6100
:10B10000174B3B611FE03A697B69D31ADB10DA0FFA
:10B1100013445B10DB007A691344FB60FB681B6817
:10B12000BB60BA687B689A4202D9FB683B610AE05F
:10B13000BA687B689A4203D2FB6808337B6102E0FD
:10B14000FB685B6804E07A693B699A42DBD30023C1
:10B1500018461C37BD465DF8047B7047FC2503008C
:10B160002427030080B400AFBFF34F8F00BF064B0E
:10B17000DB6803F4E0620449044B1343CB60BFF384
:10B180004F8F00BF00BFFDE700ED00E00400FA05AF
:10B1900080B483B000AF184B1B687B60174B1B68F3
:10B1A0003B607B68082B1FD13B68052B1AD801A296
:10B1B00052F823F0CDB10200D1B10200D5B10200A6
:10B1C000D9B10200DDB10200E1B1020001230CE0BF
:10B1D00001230AE0012308E0012306E0012304E043
:10B1E000012302E0012300E0002318460C37BD468E
:10B1F0005DF8047B704700BF30010010340100107F
:10B2000080B483B000AF184B1B687B60174B1B6882
:10B210003B607B68082B1FD13B68052B1AD801A225
:10B2200052F823F03DB2020041B2020045B20200E2
:10B2300049B202004DB2020051B2020001230CE0FB
:10B2400001230AE0012308E0012306E0012304E0D2
:10B25000012302E0012300E0002318460C37BD461D
:10B260005DF8047B704700BF30010010340100100E
:10B2700080B483B000AF184B1B687B60174B1B6812
:10B280003B607B68082B1FD13B68052B1AD801A2B5
:10B2900052F823F0ADB20200B1B20200B5B2020022
:10B2A000B9B20200BDB20200C1B2020001230CE03B
:10B2B00000230AE0002308E0002306E0002304E066
:10B2C000002302E0002300E0002318460C37BD46AF
:10B2D0005DF8047B704700BF30010010340100109E
:10B2E00080B483B000AF184B1B687B60174B1B68A2
:10B2F0003B607B68082B1FD13B68052B1AD801A245
:10B3000052F823F01DB3020021B3020025B302005E
:10B3100029B302002DB3020031B3020001230CE077
:10B3200000230AE0002308E0002306E0002304E0F5
:10B33000002302E0002300E0002318460C37BD463E
:10B340005DF8047B704700BF30010010340100102D
:10B3500080B483B000AF184B1B687B60174B1B6831
:10B360003B607B68082B1FD13B68052B1AD801A2D4
:10B3700052F823F08DB3020091B3020095B302009E
:10B3800099B302009DB30200A1B3020001230CE0B7
:10B3900000230AE0002308E0002306E0002304E085
:10B3A000002302E0002300E0002318460C37BD46CE
:10B3B0005DF8047B704700BF3001001034010010BD
:10B3C00080B483B000AF184B1B687B60174B1B68C1
:10B3D0003B607B68082B1FD13B68052B1AD801A264
:10B3E00052F823F0FDB3020001B4020005B40200DC
:10B3F00009B402000DB4020011B4020001230CE0F4
:10B4000000230AE0002308E0002306E0002304E014
:10B41000002302E0002300E0002318460C37BD465D
:10B420005DF8047B704700BF30010010340100104C
:10B4300080B483B000AF184B1B687B60174B1B6850
:10B440003B607B68082B1FD13B68052B1AD801A2F3
:10B4500052F823F06DB4020071B4020075B402001A
:10B4600079B402007DB4020081B4020001230CE033
:10B4700001230AE0012308E0012306E0012304E0A0
:10B48000012302E0012300E0002318460C37BD46EB
:10B490005DF8047B704700BF3001001034010010DC
:10B4A00080B483B000AF184B1B687B60174B1B68E0
:10B4B0003B607B68082B1FD13B68052B1AD801A283
:10B4C00052F823F0DDB40200E1B40200E5B402005A
:10B4D000E9B40200EDB40200F1B4020000230CE074
:10B4E00000230AE0002308E0002306E0012304E033
:10B4F000012302E0012300E0002318460C37BD467B
:10B500005DF8047B704700BF30010010340100106B
:10B5100080B500AFFFF7C4FF0346002B07D04FF004
:10B5200010234FF08042D3F80832C2F8583500BFDC
:10B5300080BD000080B400AF00BF054BD3F80034DD
:10B54000002BFAD000BF00BFBD465DF8047B7047FA
:10B5500000E0014080B582B000AF7860044A7B68AB
:10B56000C2F80435FFF7E6FF00BF0837BD4680BDCF
:10B5700000E0014080B400AF034B044A1A6000BFF2
:10B58000BD465DF8047B7047882300200090D003FF
:10B5900080B500AFFFF7FCFD0346002B0ED04FF047
:10B5A00080430022C3F80C214FF080430022C3F8EF
:10B5B00010214FF080430022C3F83825FFF720FE0A
:10B5C0000346002B76D04FF08053744AD3F80434EE
:10B5D000C2F820354FF08053704AD3F80834C2F8CF
:10B5E00024354FF080536D4AD3F80C34C2F8283517
:10B5F0004FF08053694AD3F81034C2F82C354FF01D
:10B600008053664AD3F81434C2F830354FF0805373
:10B61000624AD3F81834C2F834354FF080535F4A89
:10B62000D3F81C34C2F840354FF080535B4AD3F84E
:10B630002034C2F844354FF08053584AD3F82434AC
:10B64000C2F848354FF08053544AD3F82834C2F832
:10B650004C354FF08053514AD3F82C34C2F8503552
:10B660004FF080534D4AD3F83034C2F854354FF080
:10B6700080534A4AD3F83434C2F860354FF08053CF
:10B68000464AD3F83834C2F864354FF08053434A01
:10B69000D3F83C34C2F868354FF080533F4AD3F8B2
:10B6A0004034C2F86C354FF080533C4AD3F84434F0
:10B6B000C2F87035FFF7DCFD0346002B02D0384B93
:10B6C000384A1A60FFF70CFE0346002B03D0364BB6
:10B6D000FB22C3F81825FFF73BFE0346002B0AD0D8
:10B6E000324B1B6823F00F02314B1B6803F00F0332
:10B6F0002E4913430B60FFF763FE0346002B03D074
:10B700002C4B4FF400721A60FFF792FE0346002B99
:10B710000DD04FF08043D3F8003403F00103002B29
:10B7200005D04FF080436FF00102C3F80024224B94
:10B73000D3F88830204A43F47003C2F88830BFF34E
:10B740004F8F00BFBFF36F8F00BFFFF7E1FE4FF0D9
:10B750001023D3F80032002B05DB4FF01023D3F871
:10B760000432002B15DA0120FFF7F4FE4FF010230E
:10B770001222C3F80022FFF7DDFE4FF01023122241
:10B78000C3F80422FFF7D6FE0020FFF7E3FEFFF721
:10B79000E9FCFFF7EFFE00BF80BD00BF00C0004026
:10B7A0008C5600404881030000F00040E40E004049
:10B7B000580200104096024000ED00E080B483B0D3
:10B7C00000AF78607B681B681F2B02D84FF0A04346
:10B7D00006E07B681B6803F01F027B681A60034B5E
:10B7E00018460C37BD465DF8047B704700030050D7
:10B7F00080B584B000AF7860084611461A4603460B
:10B80000FB700B46BB7013467B703B1D1846FFF761
:10B81000D5FFF860FA78BB785B001A437B789B0011
:10B820001A433B7E1B0242EA03013B7F1B047A68FA
:10B830001943FB6802F5E07243F8221000BF10378D
:10B84000BD4680BD80B584B002AF7860002301930F
:10B85000002300930023012201217868FFF7C8FF2D
:10B8600000BF0837BD4680BD80B584B002AF7860A8
:10B870000B46FB70FB78002201920022009200220E
:10B8800000217868FFF7B4FF00BF0837BD4680BDD0
:10B8900080B584B000AF78603B1D1846FFF78EFF7F
:10B8A000F8607B68012202FA03F31946F86800F099
:10B8B0002CF800BF1037BD4680BD80B584B000AF06
:10B8C00078603B1D1846FFF779FFF8607B6801221E
:10B8D00002FA03F31946F86800F026F800BF1037A3
:10B8E000BD4680BD80B582B000AF786039603B68EE
:10B8F000002B03D17868FFF7E0FF02E07868FFF7DC
:10B90000C7FF00BF0837BD4680BD80B483B000AF1D
:10B91000786039607B683A68C3F8082500BF0C3747
:10B92000BD465DF8047B704780B483B000AF78609B
:10B9300039607B683A68C3F80C2500BF0C37BD46F8
:10B940005DF8047B7047000080B582B000AF78607E
:10B95000054A7B6813441B7801211846FFF7C2FF94
:10B9600000BF0837BD4680BD2427030080B582B0E4
:10B9700000AF7860054A7B6813441B7800211846A5
:10B98000FFF7B0FF00BF0837BD4680BD2427030086
:10B9900080B582B000AF00237B6005E07868FFF7D8
:10B9A000E5FF7B6801337B607B68012BF6D900BF24
:10B9B00000BF0837BD4680BD80B582B000AF002310
:10B9C0007B6009E0094A7B6813441B781846FFF73F
:10B9D00039FF7B6801337B607B68012BF2D9FFF76D
:10B9E000D7FF00BF0837BD4680BD00BF2427030036
:10B9F00080B582B000AF00237B6007E01E230321E7
:10BA00001846FFF731FF7B6801337B607B68002BB2
:10BA1000F4D000BF00BF0837BD4680BD80B582B0FE
:10BA200000AF78607B6803F00103002B01D0FFF7C3
:10BA3000C3FF7B6803F00203002B01D0FFF7D8FFA0
:10BA400000BF0837BD4680BD80B483B000AF034659
:10BA5000FB7197F90730002B12DBFB7903F01F0213
:10BA60000A4997F907305B09012000FA02F22033F6
:10BA700041F82320BFF34F8F00BFBFF36F8F00BF8C
:10BA800000BF0C37BD465DF8047B704700E100E065
:10BA900080B400AF064BD3F80034002B14BF012351
:10BAA0000023DBB21846BD465DF8047B704700BF3B
:10BAB0000000014080B500AFFFF7EAFF034683F0C6
:10BAC0000103DBB2002B04D000F01FFB024B00226D
:10BAD0009A7000BF80BD00BF302B002080B582B0BF
:10BAE00000AF00237B60184B1B78002B02D085230E
:10BAF0007B601CE0144B00229A60134B00225A60BA
:10BB0000114B00221A61104B0022DA600F4800F03E
:10BB1000D3FA786005F020FF034683F00103DBB21F
:10BB2000002B01D000F0E8FA074B01221A70FFF752
:10BB3000AFFF0346002B02D0034B01229A707B68B3
:10BB400018460837BD4680BD302B002001BC0200DE
:10BB500080B485B000AF78607B681B68FB60FB68D1
:10BB6000002B03D0FB681A687B681A60FB681846D4
:10BB70001437BD465DF8047B7047000080B582B085
:10BB800000AF0023FB71FB1D1846FDF7E7FD094BD5
:10BB9000DB68013B074AD360064BDB68002B01D111
:10BBA000FFF788FFFB791846FDF7E3FD00BF083774
:10BBB000BD4680BD302B002080B584B000AF034669
:10BBC000FB71FB79002B02D10B4BFB6001E00B4BAF
:10BBD000FB60F868FFF7BCFFB860BB68002B05D0BE
:10BBE000BB685B68FA7910469847F2E700BF00BF70
:10BBF0001037BD4680BD00BF382B0020402B0020F1
:10BC000080B582B000AF0346FB71FB79002B05D1F4
:10BC1000094B01225A700020FFF7CEFFFB79012B60
:10BC200005D1054B01229A700120FFF7C5FF00BF27
:10BC30000837BD4680BD00BF302B002080B582B0E4
:10BC400000AF786039607B68002B05D1044B01227E
:10BC50005A700020FFF7B0FF00BF0837BD4680BD17
:10BC6000302B002080B584B000AF03463960FB71F3
:10BC7000FB79032B27D0032B2ADC002B02D0012BCE
:10BC800004D025E00020FFF7DFFE22E00023FB7355
:10BC900007F10F031846FDF761FD104B1B7883F089
:10BCA0000103DBB2002B01D0FFF718FF0B4BDB6861
:10BCB00001330A4AD360094B01229A70FB7B184674
:10BCC000FDF757FD05E000F017FAFFF757FF00E01A
:10BCD00000BF00BF1037BD4680BD00BF302B002025
:10BCE00080B588B000AF786039603B68FB617B68E5
:10BCF0001B783B737B685B683B617B689B68DBB24E
:10BD00003B757B68DB68BB61074AFB6952F82330EF
:10BD10000649FA6951F8221007F10C0210469847BB
:10BD200000BF2037BD4680BD442B00204C2B002097
:10BD300080B588B000AF786039603B68FB617B6894
:10BD40001B783B737B685B683B617B689B68DBB2FD
:10BD50003B757B68DB68BB61074AFB6952F823309F
:10BD60000649FA6951F8221007F10C02104698476B
:10BD700000BF2037BD4680BD442B00204C2B002047
:10BD8000B0B58EB000AFF860B9607A60FB681B7820
:10BD90003B6329493B6B7A6841F82320BB681A69E9
:10BDA00026493B6B41F82320BB685B7F1946244A38
:10BDB0003B6B13440A461A70BB6807F110041D461A
:10BDC0000FCD0FC495E80F0084E80F003B6B3B627A
:10BDD00000237B63FB681B781A46194B9B5C002B86
:10BDE0000ED0FB68181D7B68002B01D0154A00E0BF
:10BDF000002207F11003194602F040FB786315E0BA
:10BE0000FB681B781A460E4B9B5C002B0ED1FB681F
:10BE100003F10C007B68002B01D00B4A00E00022EC
:10BE200007F11003194601F09BFC78637B6B184601
:10BE30003837BD46B0BD00BF442B00204C2B00203E
:10BE40008C2F0020E1BC020031BD020080B483B021
:10BE500000AF0346FB7197F90730002B0BDBFB7932
:10BE600003F01F02074997F907305B09012000FA28
:10BE700002F241F8232000BF0C37BD465DF8047B79
:10BE8000704700BF00E100E080B483B000AF03461C
:10BE90003960FB7197F90730002B0ADB3B68DAB297
:10BEA0000C4997F907305201D2B20B4483F80023B2
:10BEB0000AE03B68DAB20849FB7903F00F03043B60
:10BEC0005201D2B20B441A7600BF0C37BD465DF862
:10BED000047B704700E100E000ED00E080B483B037
:10BEE00000AF78607B681B0B5BB218460C37BD4611
:10BEF0005DF8047B704780B582B000AF03460A4608
:10BF0000FB711346BB71BA7997F907301146184691
:10BF1000FFF7BAFF00BF0837BD4680BD80B582B0CD
:10BF200000AF0346FB7197F907301846FFF78EFF05
:10BF300000BF0837BD4680BD80B483B000AF034664
:10BF4000FB71114A97F90730002B00DA1F335B11A0
:10BF50005BB252F8232097F90730594203F01F03D0
:10BF600001F01F0158BF4B425BB222FA03F303F00A
:10BF70000103002B14BF01230023DBB218460C374A
:10BF8000BD465DF8047B704700E100E080B483B0FB
:10BF900000AF78604FF080427B68C2F8083300BF82
:10BFA0000C37BD465DF8047B704780B483B000AFAA
:10BFB0000346FB71FB7903F1804301221A6000BF45
:10BFC0000C37BD465DF8047B704780B485B000AF88
:10BFD0000346FB80FB8803F1804300221A60FB8844
:10BFE00003F180431B68FB60FB6800BF1437BD464C
:10BFF0005DF8047B704780B483B000AF0346FB80DC
:10C00000FB8803F180431B68002B14BF012300232E
:10C01000DBB218460C37BD465DF8047B704780B430
:10C0200083B000AF78604FF080427B68C2F818356B
:10C0300000BF0C37BD465DF8047B704780B400AF8D
:10C040004FF08043D3F818341B0C03F00103002B8E
:10C0500014BF01230023DBB21846BD465DF8047B04
:10C06000704780B582B000AF0623FB714FF080406F
:10C07000FFF734FF03461846FFF75EFF034683F0E1
:10C080000103DBB2002B12D04FF08040FFF726FFF8
:10C0900003461A46FB7919461046FFF72CFF4FF06E
:10C0A0008040FFF71BFF03461846FFF737FF00BF2E
:10C0B0000837BD4680BD000080B485B000AF786011
:10C0C0000023FB600B4B1B79002B02D08523FB6008
:10C0D00008E0084A7B681360064B01221A71054B81
:10C0E00000225A71FB6818461437BD465DF8047B80
:10C0F000704700BF542B002080B500AFFFF7B1FFA1
:10C100000120FFF78CFF00BF80BD80B500AF02208B
:10C11000FFF73CFF4FF48270FFF757FF0C20FFF74B
:10C1200044FF00BFFFF78AFF0346002BFAD100BF90
:10C1300000BF80BD80B500AF4FF48070FFF75BFF9C
:10C140000346002B14D04FF48070FFF73EFF012010
:10C15000FFF71CFF104B5B7983F00103DBB2002B70
:10C1600006D00D4B01225A710B4B1B6800209847DB
:10C170004FF48270FFF73FFF0346002B0AD04FF4C5
:10C180008270FFF722FF0220FFF700FF024B1B68BF
:10C190000120984700BF80BD542B002080B483B09D
:10C1A00000AF0346FB7197F90730002B0BDBFB79DF
:10C1B00003F01F02074997F907305B09012000FAD5
:10C1C00002F241F8232000BF0C37BD465DF8047B26
:10C1D000704700BF00E100E080B483B000AF0346C9
:10C1E0003960FB7197F90730002B0ADB3B68DAB244
:10C1F0000C4997F907305201D2B20B4483F800235F
:10C200000AE03B68DAB20849FB7903F00F03043B0C
:10C210005201D2B20B441A7600BF0C37BD465DF80E
:10C22000047B704700E100E000ED00E080B483B0E3
:10C2300000AF78607B681B0B5BB218460C37BD46BD
:10C240005DF8047B704780B582B000AF03460A46B4
:10C25000FB711346BB71BA7997F90730114618463E
:10C26000FFF7BAFF00BF0837BD4680BD80B582B07A
:10C2700000AF0346FB7197F907301846FFF78EFFB2
:10C2800000BF0837BD4680BD80B582B000AF034611
:10C29000FB80FB88184600F024F803461B68012B3E
:10C2A0000CBF01230023DBB218460837BD4680BD12
:10C2B00080B584B000AF0346FB80FB88184600F0D1
:10C2C00010F803461A4600231360FB88184600F056
:10C2D00008F803461B68FB60FB6800BF1037BD46CB
:10C2E00080BD80B483B000AF0346FB80FB8803F1C0
:10C2F000804303F5C04318460C37BD465DF8047B08
:10C300007047000080B483B000AF7860044A7B6857
:10C31000C2F8043300BF0C37BD465DF8047B70479C
:10C320000060004080B483B000AF7860044A7B684E
:10C33000C2F8083300BF0C37BD465DF8047B704778
:10C340000060004080B483B000AF7860054BD3F844
:10C3500004237B68134018460C37BD465DF8047B08
:10C36000704700BF0060004080B483B000AF7860C9
:10C37000094A7B6803F5A27352F82330064943F05B
:10C3800001027B6803F5A27341F8232000BF0C373C
:10C39000BD465DF8047B70470060004080B483B008
:10C3A00000AF7860094A7B6803F5A27352F8233026
:10C3B000064923F001027B6803F5A27341F82320AC
:10C3C00000BF0C37BD465DF8047B7047006000403D
:10C3D00080B485B000AFF860B9601346FB71164AAF
:10C3E000FB6803F5A27352F82330134923F44F334B
:10C3F00023F44073FA6802F5A27241F822300E4A23
:10C40000FB6803F5A27352F82320BB681B0203F4F8
:10C410007C51FB791B0403F440330B4306491A4358
:10C42000FB6803F5A27341F8232000BF1437BD4613
:10C430005DF8047B704700BF0060004080B483B0AB
:10C4400000AF7860074A7B6803F5A27352F8233087
:10C450001B0A03F03F0318460C37BD465DF8047B0A
:10C46000704700BF0060004080B483B000AF7860C8
:10C47000074A7B6803F5A27352F823301B0C03F0C4
:10C480000303DBB218460C37BD465DF8047B7047EA
:10C490000060004080B483B000AF78607B681B68A8
:10C4A0001F2B02D84FF0A04306E07B681B6803F007
:10C4B0001F027B681A60034B18460C37BD465DF8B7
:10C4C000047B70470003005080B584B000AF7860F3
:10C4D000084611461A460346FB700B46BB701346CE
:10C4E0007B703B1D1846FFF7D5FFF860FA78BB78E4
:10C4F0005B001A437B789B001A433B7E1B0242EA97
:10C5000003013B7F1B047A681943FB6802F5E07264
:10C5100043F8221000BF1037BD4680BD80B584B0FF
:10C5200002AF78600B46FB70FB780022019200227C
:10C530000092002200217868FFF7C6FF00BF08378D
:10C54000BD4680BD80B584B000AF78603B1D184605
:10C55000FFF7A0FFF8607A68FB6802F5E07253F815
:10C56000223023F00203BB607A68FB6802F5E072B8
:10C57000B96843F8221000BF1037BD4680BD80B5B2
:10C5800084B000AF78600B46FB703B1D1846FFF788
:10C5900081FFF8607A68FB6802F5E07253F8223098
:10C5A0007A6823F44031FB6802F5E07243F8221008
:10C5B0007A68FB6802F5E07253F82230FA781204C8
:10C5C00011467A681943FB6802F5E07243F82210BD
:10C5D00000BF1037BD4680BD80B584B000AF786025
:10C5E0003B1D1846FFF756FFF860F86800F021F889
:10C5F00002467B6822FA03F303F001031846103762
:10C60000BD4680BD80B584B000AF78603B1D184644
:10C61000FFF740FFF8607A68FB6802F5E07253F8B4
:10C6200022301B0C03F00303DBB218461037BD4663
:10C6300080BD80B483B000AF78607B68D3F81035DC
:10C6400018460C37BD465DF8047B704780B489B04E
:10C6500000AFF860B9607A60194A07F1140392E8F4
:10C66000030083E80300FB68FB611BE0FB699B00A0
:10C6700007F12002134453F80C3CD3F820257B68C3
:10C680001A60FB699B0007F12002134453F80C3C2D
:10C690007A681268C3F820257B6804337B60FB69E5
:10C6A0000133FB61FA68BB681344FA699A42DDD32F
:10C6B00000BF00BF2437BD465DF8047B704700BF54
:10C6C0003827030080B584B000AF78603B1D184662
:10C6D000FFF7E0FEF8607B68012202FA03F31A46D6
:10C6E000FB68C3F8202500BF1037BD4680BD80B46D
:10C6F00085B000AF78607B685B09BB600023FB609E
:10C70000BB68002B03D0BB68012B04D007E04FF0BF
:10C71000FF33FB6003E04FF6FF73FB6000BF7B68F5
:10C7200003F01F037B60FA687B6822FA03F303F0CF
:10C730000103002B14BF01230023DBB2184614377A
:10C74000BD465DF8047B704780B485B000AF78606B
:10C7500039603B68FB607B68DB08BB607B6803F08B
:10C7600007037B6001227B6802FA03F3F968BA6869
:10C770000A441278134018461437BD465DF8047B0E
:10C78000704780B485B000AF786039603B68FB606B
:10C790007B68DB08BB607B6803F007037B60FA689B
:10C7A000BB6813441B785AB201217B6801FA03F37A
:10C7B0005BB2134359B2FA68BB681344CAB21A7029
:10C7C00000BF1437BD465DF8047B704780B483B06A
:10C7D00000AF78600D4A7B681344303393F9003022
:10C7E000002B09DB094A7B681344303393F900308E
:10C7F000072B01DC012300E0002303F00103DBB27F
:10C8000018460C37BD465DF8047B70475C2B002052
:10C8100080B483B000AF7860084A7B68134430333B
:10C8200093F90030072BCCBF01230023DBB218465D
:10C830000C37BD465DF8047B704700BF5C2B0020C1
:10C8400080B483B000AF7860074A7B68134430330C
:10C8500093F90030DB43DBB2DB09DBB218460C375F
:10C86000BD465DF8047B70475C2B002080B485B02A
:10C8700000AFF860B9607A60FB70BB6859B2104ACB
:10C88000FB68134430330A461A700D49BB687A6856
:10C8900041F82320FB7883F00103DBB2002B08D0A2
:10C8A000BB68083BFA6851B2054A13440A4683F84C
:10C8B000602000BF1437BD465DF8047B704700BFA1
:10C8C0005C2B002080B483B000AF7860054A7B68A1
:10C8D00013443033FF221A7000BF0C37BD465DF899
:10C8E000047B70475C2B002080B582B000AF78607D
:10C8F00003497868FFF745FF00BF0837BD4680BD94
:10C90000C02B002080B483B000AF7860054A7B68FC
:10C910001344303393F9003018460C37BD465DF8A8
:10C92000047B70475C2B002080B483B000AF78603C
:10C93000044A7B6852F8233018460C37BD465DF830
:10C94000047B70475C2B002080B485B000AF78601A
:10C95000074A7B681344603393F90030FB73FB7B19
:10C9600023F0C00318461437BD465DF8047B7047BA
:10C970005C2B002080B485B000AF7860074A7B68EC
:10C980001344603393F90030FB73FB7B9B09DBB2EC
:10C9900018461437BD465DF8047B70475C2B0020B9
:10C9A00080B588B000AFF860B9601346FB71FF2313
:10C9B000FB77FB79002B01D0002300E008237B618B
:10C9C000FB79002B01D0082300E00C233B617B693D
:10C9D000BB6112E00E4ABB6952F82330B3F1FF3F4E
:10C9E00008D1FB79BA68B969F868FFF73FFFBB69FE
:10C9F000FB7706E0BB690133BB61BA693B699A42C8
:10CA0000E8D397F91F3018462037BD4680BD00BFD8
:10CA10005C2B002080B483B000AF0346FB71FB7930
:10CA20000A4A4FF0FF3142F82310FB79072B06D951
:10CA3000FB79083B054A1344FF2283F8602000BFBE
:10CA40000C37BD465DF8047B704700BF5C2B0020AF
:10CA500080B582B000AF284B93F86A30002B03D02A
:10CA600008233B603B6843E00023FB710DE0FB794A
:10CA70001846FFF73CFE0346002B03D0FB7918460F
:10CA8000FFF720FFFB790133FB71FB792F2BEED9E8
:10CA90000023FB7106E0FB791846FFF7BBFFFB792B
:10CAA0000133FB71FB790B2BF5D9062200211348CA
:10CAB00005F004FA1248FFF7B9FB034606211846B1
:10CAC000FFF7C1FB0E48FFF7B1FB03461846FFF71F
:10CAD000CDFB4FF4BE70FFF7EBFB4FF00040FFF7CC
